:4000000000800020110000004D0600004D06000008B5044B1A6803F53F5302331A6000F035FB00BFFA46004010B5054C237833B9044B13B10448AFF300800123237010BDA1
:400040005881FF1F0000000070130000084B10B51BB108490848AFF300800848036803B910BD074B002BFBD0BDE81040184700BF000000005C81FF1F70130000C880FF1FDC
:400080000000000008B5C0B200F0EAFC08BD00BF70B586B00546012000F03EFC0021084600F094FC012D03D1414800F023FC0EE0022D03D13F4800F01DFC08E0032D03D1D0
:4000C0003D4800F017FC02E03C4800F013FC0021012000F07BFC3A4800F00CFC002426462BE000F0B5FC00B901260621012000F06DFC2246334905A800F016FD05A800F002
:40010000F9FB642000F01CFB012D04D12E4B1C68621C1A6011E0022D04D12B4B5C68621C5A600AE0032D04D1274B9C68621C9A6003E0254BDC68621CDA60002ED1D0012DB8
:4001400002D1224B5C600BE0022D02D11F4B9C6006E0032D02D11D4BDC6001E01B4B1C61012000F0D9FB0021084600F02FFC2A46174901A800F0D8FC01A800F0BBFB0021C3
:40018000012000F023FC0E4800F0B4FB0621012000F01CFC22460B4905A800F0C5FC05A800F0A8FB4FF47A7000F0CAFA06B070BD74130000801300008C1300009813000048
:4001C000A4130000AC130000CC80FF1F8081FF1FB0130000F0B583B062B600F0E9FB012000F09AFB642000F0ABFA012000F03EFC642000F0A5FA002000F038FC642000F0A4
:400200009FFA002000F018FC00242646012000F083FB0021084600F0D9FB6A4800F06AFB0021012000F0D2FB674800F063FB00250FE000F00DFC00B901250521012000F089
:40024000C5FB0022614901A800F06EFC01A800F051FB002DEDD05E4F00253D60012000F05BFB2946284600F0B1FB5A4800F042FB2946012000F0AAFB574800F03BFB3A6876
:40028000524901A800F050FC0821012000F09EFB01A800F02FFB4FF47A7000F051FA012503E02846FFF7F4FE0135042DF9DD012000F032FB0021084600F088FB474800F085
:4002C00019FB0021012000F081FB414D287800F09BFB0321012000F079FB287C00F094FB0621012000F072FB287B00F08DFB0921012000F06BFB287A00F086FB0C210120FA
:4003000000F064FB287900F07FFB4FF47A7000F017FA0021084600F059FB314800F0EAFA4FF47A7000F00CFA0021084600F04EFB2C4800F0DFFA2868FFF7A4FE012000F0F4
:40034000A3FBC6F10106F0B200F076FB00F06CFB8442FBD0012000F097FBC4F101040021084600F033FB204800F0C4FA4FF4FA7000F0E6F90021084600F028FB1B4800F0E5
:40038000B9FA012510E0124B53F82500FFF77AFEC6F10106F0B200F04FFB00F045FB8442FBD0C4F101040135042DECDD012000F0B3FA0F4800F09EFA4FF4FA6000F0C0F911
:4003C00024E700BFC4130000D4130000AC1300008081FF1FDC130000EC130000F81300000C14000020140000341400004414000058140000FEE700BFF0B40022174611E086
:4004000050F82760F3B226F0FF0608E001EB420511F812406D78A5550132013BDBB2002BF4D10137052FEBD9F0BC7047064B1B78DBB203F00701054A11701B090132137043
:400440004422034B1A707047CF0100496E5800407658004008B50A46002100F05CFB08BD38B502221E4B1A7008224FF040231A70032103F5007319701A4B1B78DBB21A49C6
:400480000B701A4B1A8041F25122023B1A80002419250CE0164B1B7803F0010343EA440404F003044FF4F07000F0EEFA013D0DB1032CEFD115B90320FFF79CFF0D4B4FF419
:4004C00080721A8007221A7000220B490A704820023108701A700222033B1A7038BD00BF0043004008010049A14600402242004025420040044000400640004008B500F092
:40050000FFFA08BD38B572B6374A137843F00403137000240CE0354D630019194A0011462A44084691882858FFF794FF0134E4B2052CF0D92E494FF09040FFF75DFF2D4A65
:40054000137843F0020313701032137843F002031370294C237843F040032370A2F58632513A137843F010031370082223492448FFF7C4FF082223492348FFF7BFFF0A22CA
:4005800022492348FFF7BAFF082222492248FFF7B5FF082221492248FFF7B0FF082221492148FFF7ABFF082220492148FFF7A6FF0A2220492048FFF7A1FF204A137843F07B
:4005C000080313701E4D61232B70FFF749FF81232B7001221B4B1A70FFF728FF0E2221461948FFF78BFF38BDE8460040681400001800004803500140A04300406800004818
:400600000251004070000048C251004078000048F051004084000048125100408C0000482251004094000048325100409C00004842510040A400004860510040224300400D
:400640000048004004000840B043004008B500F02BFA03680C2B00D1FEE7FEE708B5094B1A681044084BC31A802B02DC054B186005E000F019FA0C2303604FF0FF321046BC
:4006800008BD00BFDC80FF1F9881FF1F08B5104E104D16E029686B68AC68002204E051F8040B43F8040B0432A242F8D1E868002203E0002143F8041B04328242F9D11035BB
:4006C000013E002EE6D100F0F5F9FFF783FDFEE701000000F814000008B5104A104B1A60104A136843F40073136000230AE0032B03D80D4A52F8231000E00C490C4A42F803
:40070000231001332F2BF2D90A4B1A780A4B1A70074A0A4B1A60FFF7F5FE08BD0004FA050CED00E014ED00E0000000004D0600000080FF1FBC760040C080FF1F08ED00E046
:4007400010B5044605E0084B186800F09DF9A4F50044B4F5004FF6D8034B586800FB04F000F092F910BD00BFE080FF1F08B5034B1B7A00FB03F000F087F908BDE080FF1FC6
:4007800010B50B4C237803F09F032370237803F0F00323702378184340F0100020700120FFF7E4FF237803F0EF03237010BD00BF2051004038B505460E4C237843F02003B3
:4007C0002370237803F0BF0323700020FFF7CEFF237803F0F003237023781D4345F0100525700120FFF7C2FF237803F0EF03237038BD00BF2051004070B5354B1A7802F039
:400800008002D2B21A7033490A7802F0F00242F00F020A7001310A7802F0F0020A7001310A7802F0F0020A701A7802F0DF021A701A7842F040021A704FF4CA760020FFF74D
:4008400095FF234D2B7843F010032B700120FFF78DFF214B1C78E4B22B7803F0EF032B700020FFF783FF04F00804E4B22B7843F010032B700120FFF779FF2B7803F0EF03CB
:400880002B7014B90A20FFF771FF013E0CB1002ED4D10F4A137803F0BF031370137803F08003DBB213700232137803F0F00313700132137803F0F00343F00F03137001327D
:4008C000137803F0F00343F00F03137070BD00BF20510040225100402151004010B50446FFF78AFF2009FFF765FF04F00F00FFF761FF10BD38B505460078012404E0FFF7D7
:40090000EDFF285D0134E4B20028F8D138BD00BF08B5FFF7E3FF08BD10B50446FFF76CFF2009FFF72DFF04F00F00FFF729FF10BD08B52820FFF704FF0320FFF721FF052077
:40094000FFF7FEFE0320FFF71BFF0F20FFF7F8FE0320FFF715FF0120FFF7F2FE0220FFF70FFF0520FFF7ECFE0620FFF7D5FF0E20FFF7D2FF2C20FFF7CFFF0820FFF7CCFFFA
:400980000120FFF7C9FF0C20FFF7C6FF0320FFF7C3FF0520FFF7D4FE08BD00BF08B50C20FFF7BAFF0122014B1A7008BD7481FF1F08B5054B5B7823B9FFF7BAFF0122024BE1
:4009C0005A70FFF7EBFF08BD7481FF1F08B5032819D8DFE800F002070D1381F08000FFF79BFF08BDA1F14000C0B2FFF795FF08BDA1F16C00C0B2FFF78FFF08BDA1F12C006C
:400A0000C0B2FFF789FF08BD38B504460309054DE85CFFF77DFF04F00F04285DFFF778FF38BD00BF8C140000024B187800F00100704700BFC1510040044A137803F0DF0325
:400A4000400100F0200018431070704730510040024B1878C0F34010704700BFF1510040014B1870704700BF72640040044A137803F0FE0300F0010018431070704700BF8B
:400A800040510040000000000230800803D000BF01380046FCD17047EFF3108072B6704780F31088704700BF014B1868704700BF5081FF1F0E4B70B51E460E4C0025E41AB4
:400AC000A410A54204D056F8253098470135F8E700F000FD084B094C1E46E41AA4100025A54204D056F8253098470135F8E770BDE0140000E0140000E0140000E8140000C9
:400B000010B5431E0A44914204D011F8014B03F8014FF8E710BD03460244934202D003F8011BFAE7704700000EB400B54FF402719CB0ADF814106FF00041049107914FF615
:400B4000FF711DAB02900690084853F8042BADF81610006802A9019300F064F8029B00221A701CB05DF804EB03B070475081FF1F2DE9F0478E6882469E420C4691469846E9
:400B80003ED88A8912F4906F3AD02568096902236F1A656905EB450595FBF3F57B1C43449D4238BF1D4653050FD5294600F040FB064698B13A462169FFF7A2FFA38923F42A
:400BC000906343F08003A38113E02A4600F08EFB064670B92169504600F0DEFA0C23CAF80030A3894FF0FF3043F04003A381BDE8F08726613E44266046466561ED1BA56090
:400C0000464528BF464649463246206800F0A8FAA36800209B1BA36023681E442660BDE8F08700002DE9F04F9DB003938B8980461C060D4616460DD50B695BB9402100F084
:400C4000F7FA2860286118B90C23C8F80030CDE040236B610023099320238DF82930DFF89CB130238DF82A3037463C4614F8013B1BB9B7EB060910D003E0252BF9D027465B
:400C8000F3E74B46324629464046FFF771FF013000F0A780099B4B4409933B78002B00F0A08000234FF0FF3204930793059206938DF853301A930126052221784E4800F0DB
:400CC00041FA671C049B38B14B4A3C46801A06FA00F018430490EFE7D90644BF20228DF853201A0744BF2B228DF8532022782A2A03D0079A00210A200BE0039A111D1268E6
:400D00000391002A10DA524243F00200079204900BE027463B780134303B092B03D800FB02320121F5E701B107923B782E2B1ED17B782A2B0AD1039B02371A1D1B6803929F
:400D4000002BB8BF4FF0FF33059310E0002319460593781C0A2407463A780130303A092A03D804FB01210123F5E703B1059103223978224800F0E6F940B14023CBEB0000D0
:400D800003FA00F0049B013718430490397806221B487E1C8DF8281000F0D4F988B1194B33B9039B073323F007030833039314E003AB00932A46144B04A94046AFF3008088
:400DC00007E003AB00932A460F4B04A9404600F093F8B0F1FF3F824603D0099B5344099342E7AB895B0601D4099801E04FF0FF301DB0BDE8F08F00BF9E140000A414000065
:400E0000A814000000000000710B00002DE9F04791461F460A698B6806469342B8BF1346C9F8003091F843200C46DDF8208012B10133C9F800302368990642BFD9F80030E2
:400E40000233C9F80030256815F0060510D104F1190A07E00123524639463046C04701301AD00135E368D9F800209B1A9D42F1DB94F843302268003318BF012392060FD5F7
:400E8000E118302081F843005A1C94F845102244023382F8431003E04FF0FF30BDE8F08704F1430239463046C0470130F4D02268D9F80050E36802F00602042A08BF5D1B79
:400EC0002269A3680CBF25EAE57500259342C4BF9B1AED184FF000091A344D4509D00123224639463046C0470130D5D009F10109F3E70020BDE8F0872DE9F04317460A7E4A
:400F000085B06E2A984606460C460C9B01F1430E00F0AE8011D8632A22D009D8002A00F0BB80582A40F0CA8081F84520834955E0642A1ED0692A1CD0C0E0732A00F0B0808F
:400F400009D86F2A2ED0702A40F0B8800A6842F020020A603EE0752A24D0782A3AD0ADE01A6801F14205111D1960136884F84230A8E021681A6811F0800F02D0111D196076
:400F800008E011F0400F02F10401196002D0B2F9003000E01368002B3CDA2D225B4284F8432037E021681A6811F0800F02D0111D196007E011F0400F02F10401196001D0D0
:400FC000138800E01368227E5C496F2A14BF0A2208221BE078225A4984F845202268186812F0800F00F104051D6003D1550601D5038800E00368D00744BF42F0200222603E
:401000001BB9226822F0200222601022002084F8430001E049490A226568002DA56008DB206820F0040020602BB9002D7DD175460CE0002B79D07546B3FBF2F002FB1033E9
:40104000CB5C05F8013D03460028F5D1082A0BD12368DA0708D5236962689A42DEBF302305F8013C05F1FF35C5EB0E0323612EE008681A6810F0800F496903D0101D1860FC
:40108000136808E010F0400F02F104001860136801D0198000E0196000232361754616E01A68111D1960156800216268284600F049F808B1401B6060636804E004F142058A
:4010C00084F8422001232361002384F84330CDF800803B4603AA21463046FFF797FE013002D14FF0FF3026E023692A4639463046C0470130F5D023689B0710D5002504F1EB
:40110000190907E001234A4639463046C0470130E7D00135E368039A9B1A9D42F2DBE068039B9842B8BF184605E00B7804F1420584F842308AE705B0BDE8F083AF14000067
:40114000C014000010B5C9B202449042034605D01C7801308C42F8D1184610BD002010BD884210B501EB020301D8421E0BE09842FBD28118D21AD34204D013F8014D01F8A6
:40118000014DF8E710BD994204D011F8014B02F8014FF8E710BD000038B50546002944D051F8043C0C1F002BB8BFE41800F0D4F81E4A1368114613B96360146030E0A34286
:4011C0000DD92268A018834201BF18685B681218226063600C6023E0A24203D813465A68002AF9D118681918A1420BD12168014458188242196013D1106852680144196094
:401200005A600DE002D90C232B6009E021686018824201BF106852680918216062605C602846BDE8384000F098B838BD7C81FF1F70B5CD1C25F0030508350C2D38BF0C250E
:40124000002D064601DBA94202D90C23336046E000F082F8234B1C681A462146A1B10B685B1B0ED40B2B03D90B60CC18CD501EE08C420BBF63684B681360636018BF0C463A
:4012800015E00C464968E9E7174C23681BB9304600F052F820602946304600F04DF8431C18D0C41C24F00304A0420DD12560304600F053F804F10B00231D20F00700C31AEE
:4012C0000ED05A42E25070BD211A304600F034F80130EBD10C233360304600F03EF8002070BD00BF7C81FF1F7881FF1FF8B5074615460E4621B91146BDE8F840FFF798BFBB
:401300001AB9FFF749FF2846F8BD00F027F885420ED929463846FFF78BFF044650B131462A46FFF7EDFB31463846FFF735FF01E03046F8BD2046F8BD38B5064C002305464C
:4013400008462360FFF78AF9431C02D1236803B12B6038BD9481FF1F7047704751F8040C0028BEBF091851F8043CC01804387047000000005365742062373A3020000000AF
:40138000536574206231353A38200000536574206232333A31362000536574206233313A3234200056616C75653A0000257800004279746525642076616C75652073657447
:4013C0002E00000053656C65637420616E20616464723A00416464723A00000041646472657373207365742E00000000416464726573733A00000000434D4420746F20620D
:40140000652073656E743A2000000000416464722C42342C42332C42322C42310000000053656E64696E6720616464722E2E2E20000000004164647220726563656976656B
:401440006400000053656E64696E67207061796C6F61642E2E2E0000436F6D6D616E642073656E742100000050510040100000000140001000140140000800400140000AC8
:40148000004C01400002005001402000303132333435363738394142434445464300232D302B2000686C4C0065666745464700303132333435363738394142434445460076
:4014C0003031323334353637383961626364656600000000F8B500BFF8BC08BC9E4670474D000000D9060000F8B500BFF8BC08BC9E4670472900000008150000C880FF1FB4
:40150000900000004000000000000000010000000200000003000000040000009881FF1F0000E02EC05D00001800000000366E0100000000000000000000000000000000B2
:40154000000000000000000000000000000000009C1400000000000000000000000000000000000000000000000000000000000000000000000000000000000000000000BB
:4015800000000000000000000000000000000000F080FF1F00000000000000000000000000000000000000000000000000000000000000000000000000000000000000009D
:4015C00000000000000000000000000000000000000000000000000000000000000000000000000000000000000000000000000000000000000000000000000000000000EB
:4016000000000000000000000000000000000000000000000000000000000000000000000000000000000000000000000000000000000000000000000000000000000000AA
:40164000000000000000000000000000000000000000000000000000000000000000000000000000000000000000000000000000000000000000000000000000000000006A
:40168000000000000000000000000000000000000000000000000000000000000000000000000000000000000000000000000000000000000000000000000000000000002A
:020000040003F7
:0200000480007A
:40000000025200400202014009030140040501401141014005420140003601AC5B045F016C026F9474087749838087088F44E210E610AB10B301B40AEE705208530154020A
:4000400056805B04632064016710830187108E808F10D4E0D6E0D8C0E210E620A802B001B608B704EA20000000FFFF00FF000000010100000000000020000020000000000D
:4000800000000000000B0B0000000000007F7F00000000000020200000000000000101000000000002000002000000000000000000000000000000000000000000000000E6
:4000C0000000000000000000000000000000000000000000000000000000000000000000000000000000000000000000000000000000000000000000000000000000000000
:4001000000000000000000000000000000000000000000000000000000000000000000000000000000000000000000000000000000000000000000000000000000000000BF
:40014000000000000000000000000000000000000000000000000000000000000000000000000000000000000000000000000000000000000000000000000000000000007F
:40018000000000000000000000000000000000000000000000000000000000000000000000000000000000000000000000000000000000000000000000000000000000003F
:0200000490006A
:0400000000004005B7
:0200000490105A
:04000000BC90ACAF55
:0200000490303A
:020000000A8173
:0200000490402A
:4000000000000000000000000000000000000000000000000000000000000000000000000000000000000000000000000000000000000000000000000000000000000000C0
:400040000000000000000000000000000000000000000000000000000000000000000000000000000000000000000000000000000000000000000000000000000000000080
:400080000000000000000000000000000000000000000000000000000000000000000000000000000000000000000000000000000000000000000000000000000000000040
:4000C0000000000000000000000000000000000000000000000000000000000000000000000000000000000000000000000000000000000000000000000000000000000000
:0200000490501A
:0C00000000012E12306900012E1A3AEAAD
:00000001FF