:4000000000800020110000001908000019080000034A08B51268034B1A6000F005FC00BFFA460040BC76004010B5054C237833B9044B13B10448AFF300800123237010BD3D
:40004000B0F8FF1F00000000D80E0000084B10B51BB108490848AFF300800848036803B910BD074B002BFBD0BDE81040184700BF00000000B4F8FF1FD80E0000C880FF1F78
:4000800000000000426903692DE9F0411B04D0F804E01502047EC7680168ADB203F47F03234E82684FEACE2E45EA0300214B204D20430EEA0606FF02C1F30A0131433D405B
:4000C0000612C2F30A02DC692A431E73051402264FEA21284FEA214C4FEA222E1714D8725D7359709A710325002204200121B44283F8028083F803C083F807E01F729E7215
:40010000DD7318751A701A715A729A73597108D90022032C08BF59759A75DA751A76BDE8F0815A7500229A75DA751A76BDE8F08100F83F00CCF8FF1F2DE9F04F8DB062B6A7
:400140000026B24DB24C039600F01AFE012000F067FC64202E60266000F0C4FB012000F069FE4FF4967000F0BDFB304600F062FE642000F0B7FB287800F04AFEA54B02964B
:4001800003F11D0AA34B0196DB692746DFF894B2002B40F0B280019B9F48C3EBC303591C50F821009C499C4E9A1C51F82210DA1C56F8222006900791181D591D08929A1DBF
:4001C00056F8233056F8200056F8211056F822200593032309900A910B92029305A8FFF751FF8C4BDB69022B00F0F180012B40F2B980032B00F0B680DFF82C92C846A8F1FA
:40020000050616F8010F00F00FFE2B68C3F10103D8B22B6000F0FCFD00F0F2FD23689842FAD0C3F1010346453B60EAD106F10508C245E4D1019B029A93424AD100F0D8FDFB
:400240000028FBD1642000F04DFB724BDA69734B01321340002B6F4AC0F23E81D361DBF89010DBF89420DBF89830DBF88C0006910792DBF89C10DBF8A0200893DBF8A43089
:40028000059005A809910A920B93FFF7FBFEDFF89881A8F1050616F8010F00F0C5FD2B68C3F10103D8B22B6000F0B2FD00F0A8FD23689842FAD0C3F1010346453B60EAD179
:4002C00006F10508C245E4D1642000F00BFB0023019300F08DFD0646002800F0A7804D4BDB69032B0CBF49F64040FA2000F01EFB484BDB69002B3FF44EAF012B00F0F18092
:40030000022B33D0032B7FF469AF019B444AC3EBC30302EB83010A464148D1F8341600EB8300D0F83C06D2F8382607903C48059106923B493A4A00EB830001EB830102EB1D
:4003400083020346D3F84C36D1F84016D2F84426D0F848060B934FF43573089109920A9002933BE7019B0133019345E7019B2A4AC3EBC30302EB8301274AD1F8C400D1F89F
:40038000C81002EB8302D2F8CC2006912249059001EB8301204807921F4AD1F8D41000EB830002EB8302D2F8D820D0F8D000099103990A920890184A002940F0B780D12395
:4003C0000B910A9109934FF4B473029306E740F267130199994272D02D2970D05A296ED087296CD0B4296AD0E12968D0B1F5877F65D040F23B13994261D0019B0299013367
:4004000093FBF1F201FB12330193F5E6F8F8FF1F0CF9FF1FCCF8FF1FCC80FF1F03000080BCA2FF1F94F7FF1FD0F8FF1F642000F059FADBF88C30DBF890200593DBF8943088
:4004400006920793DBF89C30DBF898200993DBF8A43008920B93DBF8A020644B05A8D3F81C800A92DE61FFF70DFEA9F1050616F8010F00F0D9FC2B68C3F10103D8B22B608B
:4004800000F0C6FC00F0BCFC23689842FAD0C3F101034E453B60EAD106F10509CA45E4D1534B08F1010808EA0303002B4F4A46DB6420D36100F016FA002301930FE7039BC9
:4004C0004C4A013382FB0321DA17C2EB610202EBC2029B1A039390E7013B63F003030133BCE6019B444AC3EBC30302EB83010A464148496D00EB8300C06D926D07903E485D
:40050000059106923C493C4A00EB830001EB830102EB83020346DB6E096E526E806E0B930423089109920A90029357E601290BD1662322220B93FF230A92099343E7013BE5
:4005400063F003030133B3E7022906D1DA2321220B93FF230A92099335E702EB8303D3F8DC300B93039B032B06D1DD2300220B9333230A92099326E7042B09D133230B931B
:400580001123CC2209934FF4B4730A92029325E6052B09D100230B932223662209934FF4B4730A92029319E6062B09D100230B933323442209934FF4B4730A9202930DE657
:4005C000072B08D1992300220A9309934FF4B4730B92029302E6082B7FF4F5AEFF230B930A9309934FF4B4730293F7E5CCF8FF1F03000080398EE338CC80FF1FF8B572B6B2
:400600006B4E6C4A35461378002443F00403137004EB4403AA8856F813000134002100F053FC062C05F10605F2D1634E634F002556F8043F13F0FF0E23F0FF0413D005F1F8
:4006400010530EF1FF3E03F10D005FFA8EFE70440C3340005B001A785978023383421155F9D101357544BE42E2D15549554A0B78554843F002030B70137841F2512543F0C1
:40068000020313700278A1F5863142F04002027041390A784D4C42F010024D4B0A704D4A03CB2060616003CBEE341060516093E8070003C40C332280474A03CB474E44F809
:4006C000E60C44F8E21C03CB1060516003CB3060716003CB983C1062516293E8070003C43F4922800B783F483F4A43F008034FF0610E0B70A6F6326680F800E04FF040244D
:4007000008210320394B02273770217010701A783748384BD2B286F8A123A4F8221205801C784FF4F0701D4604F0010400F090FB182601E0032C0DD02B784FF4F07003F0E7
:40074000010343EA440400F083FB013E04F00304F0D1FEE7284B294F29484FF4807207251A80284E1D7000221E4C274948253A70057002271A7081250120244B37702570AB
:4007800008701B782248DBB2A1F5F421A1F2957103F007071F4D1B090B4A0770A4F58A640B7044260FCA2E7007C42380F8BD00BFDC0E0000E8460040FCFFFF4714000048DC
:4007C0000350014013500140A04300400251004068000048C2510040225100403251004022430040004800400042004008010049204200402542004004400040064000403E
:40080000084000400140004004000840CF0100496E5800407658004008B500F029FB03680C2B00D0FEE7FEE780B5134FF7B1134E002556F80C0C56F8084C56F8102C034689
:400840003CB1043A52F8041F43F8041B191AA142F8D156F8040C1A4620B142F8045BD11A8842FAD1013F06F11006E2D100F006FBFFF762FCFEE700BF01000000380F0000CE
:400880000E4B0F4A0F491A600B680F4A43F400730E480B600023032B94BF50F823100C490133302B42F8041FF5D10A4B0A4918780A4A0B4B08701A60FFF7A0BE0CED00E056
:4008C0000004FA0514ED00E0FC7FFF1F0000000019080000BC760040C080FF1F0080FF1F08ED00E0B0F5004F70B506461AD904460D4DA4F50044686800F0AAFAB4F5004FE2
:40090000F7D8A6F50043013B23F4FF4323F07F03A6F50046F61AA86800FB06F0BDE8704000F096BA004DF6E73CF8FF1F024B1B7800FB03F000F08CBA3CF8FF1FF8B5334B5C
:40094000334D1A78334802F08002D2B21A702A78314902F0F00242F00F022A7002781C4602F0F00202700A782C4F02F0F0020A701A784FF4CA7602F0DF021A701A7842F0C8
:4009800040021A7001E0013E22D00020FFF7CEFF2378012043F010032370FFF7C7FF3D782378002003F0EF032370FFF7BFFF2378012043F010032370FFF7B8FF2378EDB20D
:4009C00003F0EF0323702B07DDD40A20FFF7AEFF0E4A0F4C13780F4803F0BF03137013780D4903F08003DBB21370237803F0F0032370037803F0F00343F00F0303700B78EB
:400A000003F0F00343F00F030B70F8BD205100402251004023510040245100402151004038B50546174CFFF789FF2378012003F09F032370237803F0F0032370227842F0FF
:400A4000100242EA15122270FFF770FF237805F00F0503F0EF0323702378012003F09F032370237803F0F0032370237843F010032B432370FFF75AFF237803F0EF032370C2
:400A800038BD00BF2051004010B5BC4C2820FFF729FF2378012003F09F032370237803F0F0032370237843F013032370FFF73EFF2378052003F0EF032370FFF713FF237821
:400AC000012003F09F032370237803F0F0032370237843F013032370FFF728FF23780F2003F0EF032370FFF7FDFE2378012003F09F032370237803F0F0032370237843F00C
:400B000013032370FFF712FF2378012003F0EF032370FFF7E7FE2378012003F09F032370237803F0F0032370237843F012032370FFF7FCFE2378052003F0EF032370FFF76A
:400B4000D1FEFFF7FBFE2378012003F09F032370237803F0F0032370237843F010032370FFF7E4FE2378012003F0EF032370237803F09F032370237803F0F00323702378CD
:400B800043F016032370FFF7D1FE237803F0EF032370FFF7D3FE2378012003F09F032370237803F0F0032370237843F010032370FFF7BCFE2378012003F0EF0323702378CC
:400BC00003F09F032370237803F0F0032370237843F01E032370FFF7A9FE237803F0EF032370FFF7ABFE2378012003F09F032370237803F0F0032370237843F0120323707A
:400C0000FFF794FE2378012003F0EF032370237803F09F032370237803F0F0032370237843F01C032370FFF781FE237803F0EF032370FFF783FE2378012003F09F032370BE
:400C4000237803F0F0032370237843F010032370FFF76CFE2378012003F0EF032370237803F09F032370237803F0F0032370237843F018032370FFF759FE237803F0EF0338
:400C80002370FFF75BFE2378012003F09F032370237803F0F0032370237843F010032370FFF744FE2378012003F0EF032370237803F09F032370237803F0F0032370237808
:400CC00043F011032370FFF731FE237803F0EF032370FFF733FE2378012003F09F032370237803F0F0032370237843F010032370FFF71CFE2378012003F0EF032370237870
:400D000003F09F032370237803F0F0032370237843F01C032370FFF709FE237803F0EF032370FFF70BFE2378012003F09F032370237803F0F0032370237843F0100323707C
:400D4000FFF7F4FD2378012003F0EF032370237803F09F032370237803F0F0032370237843F013032370FFF7E1FD2378052003F0EF032370BDE81040FFF7B4BD20510040F1
:400D800038B5194D6B781BB9FFF77EFE01236B70164CFFF7D3FD2378012003F09F032370237803F0F0032370237843F010032370FFF7BCFD2378012003F0EF0323702378A6
:400DC00003F09F032370237803F0F0032370237843F01C032370FFF7A9FD2378012203F0EF0323702A7038BDF4F8FF1F20510040024B1878C0F34000704700BF61510040E3
:400E0000024B187800F00100704700BFC1510040044A4001137800F0200003F0DF0318431070704730510040014B1870704700BF72640040044A00F00100137803F0FE03AC
:400E400018431070704700BF40510040000000000230800803D000BF01380046FCD17047EFF3108072B6704780F31088704700BF014B1868704700BFACF8FF1F0E4B70B5AD
:400E80001E460E4C0025E41AA410A54204D056F8253098470135F8E700F034F8084B094C1E46E41AA4100025A54204D056F8253098470135F8E770BD100F0000100F00008F
:400EC000100F0000180F000003460244934202D003F8011BFAE770470000000050510040100000000140001000140140000800400140000A004C014000020050014020005D
:400F000043000000F8B500BFF8BC08BC9E4670474D00000081080000F8B500BFF8BC08BC9E46704729000000380F0000C880FF1FE877000068000000000000002C010000D0
:400F40002C01000090010000900100000000000000000000FF0000006400000064000000C8000000C800000000000000FF0000000000000000000000F4010000FF040000D4
:400F8000CF020000FF000000000000000000000064000000640000006400000064000000FF0000000000000000000000C8000000C8000000C8000000C8000000FF000000B3
:400FC00000000000000000002C0100002C0100002C0100002C010000FF000000000000000000000090010000900100009001000090010000FF0000000000000000000000FB
:401000009C03000058010000BC030000780100001F0000000F000000FF0000009C0300005D010000BC0300007D0100001F0000000F000000FF0000009C03000062010000EA
:40104000BC030000820100001F0000000F000000FF0000009C03000068010000BC030000880100001F0000000F000000FF0000009B0300006D010000BB0300008D0100002C
:401080001F0000000F000000FF0000009B03000072010000BB030000920100001F0000000F000000FF0000009A03000077010000BA030000970100001F0000000F000000DC
:4010C000FF0000009A0300007D010000BA0300009D0100001F0000000F000000FF0000009903000082010000B9030000A20100001F0000000F000000FF0000009803000008
:4011000087010000B8030000A70100001F0000000F000000FF000000970300008C010000B7030000AC0100001F0000000F000000FF0000009603000091010000B6030000F8
:40114000B10100001F0000000F000000FF0000009503000096010000B5030000B60100001F0000000F000000FF000000940300009B010000B4030000BB0100001F00000000
:401180000F000000FF00000093030000A1010000B3030000C10100001F0000000F000000FF00000092030000A6010000B2030000C60100001F0000000F000000FF0000005F
:4011C00090030000AB010000B0030000CB0100001F0000000F000000FF0000008F030000B0010000AF030000D00100001F0000000F000000FF0000008D030000B5010000CB
:40120000AD030000D50100001F0000000F000000FF0000008C030000BA010000AC030000DA0100001F0000000F000000FF0000008A030000BF010000AA030000DF01000020
:401240001F0000000F000000FF00000088030000C4010000A8030000E40100001F0000000F000000FF00000086030000C8010000A6030000E80100001F0000000F00000022
:40128000FF00000084030000CD010000A4030000ED0100001F0000000F000000FF00000082030000D2010000A2030000F20100001F0000000F000000FF0000008003000078
:4012C000D7010000A0030000F70100001F0000000F000000FF0000007E030000DC0100009E030000FC0100001F0000000F000000FF0000007B030000E00100009B03000028
:40130000000200001F0000000F000000FF00000079030000E501000099030000050200001F0000000F000000FF00000076030000E901000096030000090200001F00000026
:401340000F000000FF00000074030000EE010000940300000E0200001F0000000F000000FF00000071030000F301000091030000130200001F0000000F000000FF000000E7
:401380006E030000F70100008E030000170200001F0000000F000000FF0000006C030000FB0100008C0300001B0200001F0000000F000000FF00000069030000000200003B
:4013C00089030000200200001F0000000F000000FF000000660300000402000086030000240200001F0000000F000000FF00000063030000080200008303000028020000A7
:401400001F0000000F000000FF000000600300000D020000800300002D0200001F0000000F000000FF0000005C030000110200007C030000310200001F0000000F000000DC
:40144000FF000000590300001502000079030000350200001F0000000F000000FF000000560300001902000076030000390200001F0000000F000000FF0000005203000070
:401480001D020000720300003D0200001F0000000F000000FF0000004F030000210200006F030000410200001F0000000F000000FF0000004B030000250200006B030000F2
:4014C000450200001F0000000F000000FF000000480300002802000068030000480200001F0000000F000000FF000000440300002C020000640300004C0200001F000000D8
:401500000F000000FF000000400300003002000060030000500200001F0000000F000000FF0000003D030000330200005D030000530200001F0000000F000000FF000000EF
:40154000390300003702000059030000570200001F0000000F000000FF000000350300003A020000550300005A0200001F0000000F000000FF000000310300003E0200004B
:40158000510300005E0200001F0000000F000000FF0000002D030000410200004D030000610200001F0000000F000000FF00000029030000440200004903000064020000D3
:4015C0001F0000000F000000FF000000250300004802000045030000680200001F0000000F000000FF000000200300004B020000400300006B0200001F0000000F0000001F
:40160000FF0000001C0300004E0200003C0300006E0200001F0000000F000000FF000000180300005102000038030000710200001F0000000F000000FF0000001303000001
:401640005402000033030000740200001F0000000F000000FF0000000F030000560200002F030000760200001F0000000F000000FF0000000B030000590200002B03000063
:40168000790200001F0000000F000000FF000000060300005C020000260300007C0200001F0000000F000000FF000000010300005E020000210300007E0200001F00000020
:4016C0000F000000FF000000FD020000610200001D030000810200001F0000000F000000FF000000F80200006302000018030000830200001F0000000F000000FF0000007E
:40170000F40200006602000014030000860200001F0000000F000000FF000000EF020000680200000F030000880200001F0000000F000000FF000000EA0200006A02000003
:401740000A0300008A0200001F0000000F000000FF000000E50200006C020000050300008C0200001F0000000F000000FF000000E00200006E020000000300008E020000A6
:401780001F0000000F000000FF000000DC02000070020000FC020000900200001F0000000F000000FF000000D702000072020000F7020000920200001F0000000F000000E7
:4017C000FF000000D202000074020000F2020000940200001F0000000F000000FF000000CD02000075020000ED020000950200001F0000000F000000FF000000C802000026
:4018000077020000E8020000970200001F0000000F000000FF000000C302000078020000E3020000980200001F0000000F000000FF000000BE0200007A020000DE02000078
:401840009A0200001F0000000F000000FF000000B90200007B020000D90200009B0200001F0000000F000000FF000000B30200007C020000D30200009C0200001F000000FD
:401880000F000000FF000000AE0200007D020000CE0200009D0200001F0000000F000000FF000000A90200007E020000C90200009E0200001F0000000F000000FF0000008C
:4018C000A40200007F020000C40200009F0200001F0000000F000000FF0000009F02000080020000BF020000A00200001F0000000F000000FF0000009A020000810200005B
:40190000BA020000A10200001F0000000F000000FF0000009502000082020000B5020000A20200001F0000000F000000FF0000008F02000082020000AF020000A20200000E
:401940001F0000000F000000FF0000008A02000083020000AA020000A30200001F0000000F000000FF0000008502000083020000A5020000A30200001F0000000F00000025
:40198000FF0000008002000084020000A0020000A40200001F0000000F000000FF0000007A020000840200009A020000A40200001F0000000F000000FF00000075020000C3
:4019C0008402000095020000A40200001F0000000F000000FF000000700200008402000090020000A40200001F0000000F000000FF0000006B020000840200008B0200001A
:401A0000A40200001F0000000F000000FF000000660200008402000086020000A40200001F0000000F000000FF000000600200008402000080020000A40200001F0000005B
:401A40000F000000FF0000005B020000830200007B020000A30200001F0000000F000000FF000000560200008302000076020000A30200001F0000000F000000FF00000000
:401A8000510200008202000071020000A20200001F0000000F000000FF0000004B020000820200006B020000A20200001F0000000F000000FF000000460200008102000031
:401AC00066020000A10200001F0000000F000000FF000000410200008002000061020000A00200001F0000000F000000FF0000003C0200007F0200005C0200009F020000F9
:401B00001F0000000F000000FF000000370200007E020000570200009E0200001F0000000F000000FF000000320200007D020000520200009D0200001F0000000F000000C5
:401B4000FF0000002D0200007C0200004D0200009C0200001F0000000F000000FF000000270200007B020000470200009B0200001F0000000F000000FF00000022020000C2
:401B80007A020000420200009A0200001F0000000F000000FF0000001D020000780200003D020000980200001F0000000F000000FF00000018020000770200003802000030
:401BC000970200001F0000000F000000FF000000130200007502000033020000950200001F0000000F000000FF0000000E020000740200002E020000940200001F0000002F
:401C00000F000000FF000000090200007202000029020000920200001F0000000F000000FF000000040200007002000024020000900200001F0000000F000000FF000000CE
:401C4000000200006E020000200200008E0200001F0000000F000000FF000000FB0100006C0200001B0200008C0200001F0000000F000000FF000000F60100006A0200006E
:401C8000160200008A0200001F0000000F000000FF000000F10100006802000011020000880200001F0000000F000000FF000000EC010000660200000C0200008602000042
:401CC0001F0000000F000000FF000000E80100006302000008020000830200001F0000000F000000FF000000E30100006102000003020000810200001F0000000F000000B0
:401D0000FF000000DF0100005E020000FF0100007E0200001F0000000F000000FF000000DA0100005C020000FA0100007C0200001F0000000F000000FF000000D501000002
:401D400059020000F5010000790200001F0000000F000000FF000000D101000056020000F1010000760200001F0000000F000000FF000000CD01000054020000ED01000097
:401D8000740200001F0000000F000000FF000000C801000051020000E8010000710200001F0000000F000000FF000000C40100004E020000E40100006E0200001F00000052
:401DC0000F000000FF000000C00100004B020000E00100006B0200001F0000000F000000FF000000BB01000048020000DB010000680200001F0000000F000000FF000000D3
:401E0000B701000044020000D7010000640200001F0000000F000000FF000000B301000041020000D3010000610200001F0000000F000000FF000000AF0100003E020000EE
:401E4000CF0100005E0200001F0000000F000000FF000000AB0100003A020000CB0100005A0200001F0000000F000000FF000000A701000037020000C701000057020000C6
:401E80001F0000000F000000FF000000A301000033020000C3010000530200001F0000000F000000FF000000A001000030020000C0010000500200001F0000000F000000C2
:401EC000FF0000009C0100002C020000BC0100004C0200001F0000000F000000FF0000009801000028020000B8010000480200001F0000000F000000FF0000009501000057
:401F000025020000B5010000450200001F0000000F000000FF0000009101000021020000B1010000410200001F0000000F000000FF0000008E0100001D020000AE0100001C
:401F40003D0200001F0000000F000000FF0000008A01000019020000AA010000390200001F0000000F000000FF0000008701000015020000A7010000350200001F0000009F
:401F80000F000000FF0000008401000011020000A4010000310200001F0000000F000000FF000000800100000D020000A00100002D0200001F0000000F000000FF000000E9
:401FC0007D010000080200009D010000280200001F0000000F000000FF0000007A010000040200009A010000240200001F0000000F000000FF00000077010000000200007B
:4020000097010000200200001F0000000F000000FF00000074010000FB010000940100001B0200001F0000000F000000FF00000072010000F7010000920100001702000052
:402040001F0000000F000000FF0000006F010000F30100008F010000130200001F0000000F000000FF0000006C010000EE0100008C0100000E0200001F0000000F000000D6
:40208000FF0000006A010000E90100008A010000090200001F0000000F000000FF00000067010000E501000087010000050200001F0000000F000000FF0000006501000099
:4020C000E001000085010000000200001F0000000F000000FF00000062010000DC01000082010000FC0100001F0000000F000000FF00000060010000D701000080010000A3
:40210000F70100001F0000000F000000FF0000005E010000D20100007E010000F20100001F0000000F000000FF0000005C010000CD0100007C010000ED0100001F000000F4
:402140000F000000FF0000005A010000C80100007A010000E80100001F0000000F000000FF00000058010000C401000078010000E40100001F0000000F000000FF000000F3
:4021800056010000BF01000076010000DF0100001F0000000F000000FF00000054010000BA01000074010000DA0100001F0000000F000000FF00000053010000B5010000ED
:4021C00073010000D50100001F0000000F000000FF00000051010000B001000071010000D00100001F0000000F000000FF00000050010000AB01000070010000CB010000BB
:402200001F0000000F000000FF0000004E010000A60100006E010000C60100001F0000000F000000FF0000004D010000A10100006D010000C10100001F0000000F000000CA
:40224000FF0000004C0100009B0100006C010000BB0100001F0000000F000000FF0000004B010000960100006B010000B60100001F0000000F000000FF0000004A010000A2
:40228000910100006A010000B10100001F0000000F000000FF000000490100008C01000069010000AC0100001F0000000F000000FF000000480100008701000068010000ED
:4022C000A70100001F0000000F000000FF000000470100008201000067010000A20100001F0000000F000000FF000000460100007D010000660100009D0100001F0000001D
:402300000F000000FF000000460100007701000066010000970100001F0000000F000000FF000000450100007201000065010000920100001F0000000F000000FF000000C5
:40234000450100006D010000650100008D0100001F0000000F000000FF000000440100006801000064010000880100001F0000000F000000FF000000440100006201000017
:4023800064010000820100001F0000000F000000FF000000440100005D010000640100007D0100001F0000000F000000FF00000044010000580100006401000078010000D9
:4023C0001F0000000F000000FF000000440100005301000064010000730100001F0000000F000000FF000000440100004E010000640100006E0100001F0000000F0000007B
:40240000FF000000440100004801000064010000680100001F0000000F000000FF000000450100004301000065010000630100001F0000000F000000FF000000450100004D
:402440003E010000650100005E0100001F0000000F000000FF000000460100003901000066010000590100001F0000000F000000FF000000460100003301000066010000DA
:40248000530100001F0000000F000000FF000000470100002E010000670100004E0100001F0000000F000000FF000000480100002901000068010000490100001F000000FB
:4024C0000F000000FF000000490100002401000069010000440100001F0000000F000000FF0000004A0100001F0100006A0100003F0100001F0000000F000000FF00000040
:402500004B0100001A0100006B0100003A0100001F0000000F000000FF0000004C010000150100006C010000350100001F0000000F000000FF0000004D0100000F010000CF
:402540006D0100002F0100001F0000000F000000FF0000004E0100000A0100006E0100002A0100001F0000000F000000FF0000005001000005010000700100002501000081
:402580001F0000000F000000FF000000510100000001000071010000200100001F0000000F000000FF00000053010000FB000000730100001B0100001F0000000F000000CE
:4025C000FF00000054010000F600000074010000160100001F0000000F000000FF00000056010000F100000076010000110100001F0000000F000000FF0000005801000081
:40260000EC000000780100000C0100001F0000000F000000FF0000005A010000E80000007A010000080100001F0000000F000000FF0000005C010000E30000007C0100004A
:40264000030100001F0000000F000000FF0000005E010000DE0000007E010000FE0000001F0000000F000000FF00000060010000D900000080010000F90000001F0000006F
:402680000F000000FF00000062010000D400000082010000F40000001F0000000F000000FF00000065010000D000000085010000F00000001F0000000F000000FF00000058
:4026C00067010000CB00000087010000EB0000001F0000000F000000FF0000006A010000C70000008A010000E70000001F0000000F000000FF0000006C010000C200000007
:402700008C010000E20000001F0000000F000000FF0000006F010000BD0000008F010000DD0000001F0000000F000000FF00000072010000B900000092010000D90000009E
:402740001F0000000F000000FF00000074010000B500000094010000D50000001F0000000F000000FF00000077010000B000000097010000D00000001F0000000F000000AD
:40278000FF0000007A010000AC0000009A010000CC0000001F0000000F000000FF0000007D010000A80000009D010000C80000001F0000000F000000FF0000008001000025
:4027C000A3000000A0010000C30000001F0000000F000000FF000000840100009F000000A4010000BF0000001F0000000F000000FF000000870100009B000000A701000025
:40280000BB0000001F0000000F000000FF0000008A01000097000000AA010000B70000001F0000000F000000FF0000008E01000093000000AE010000B30000001F0000005C
:402840000F000000FF000000910100008F000000B1010000AF0000001F0000000F000000FF000000950100008B000000B5010000AB0000001F0000000F000000FF000000EC
:402880009801000088000000B8010000A80000001F0000000F000000FF0000009C01000084000000BC010000A40000001F0000000F000000FF000000A00100008000000099
:4028C000C0010000A00000001F0000000F000000FF000000A30100007D000000C30100009D0000001F0000000F000000FF000000A701000079000000C70100009900000019
:402900001F0000000F000000FF000000AB01000076000000CB010000960000001F0000000F000000FF000000AF01000072000000CF010000920000001F0000000F00000007
:40294000FF000000B30100006F000000D30100008F0000001F0000000F000000FF000000B70100006C000000D70100008C0000001F0000000F000000FF000000BB01000034
:4029800068000000DB010000880000001F0000000F000000FF000000C001000065000000E0010000850000001F0000000F000000FF000000C401000062000000E401000059
:4029C000820000001F0000000F000000FF000000C80100005F000000E80100007F0000001F0000000F000000FF000000CD0100005C000000ED0100007C0000001F000000B8
:402A00000F000000FF000000D10100005A000000F10100007A0000001F0000000F000000FF000000D501000057000000F5010000770000001F0000000F000000FF000000FC
:402A4000DA01000054000000FA010000740000001F0000000F000000FF000000DF01000052000000FF010000720000001F0000000F000000FF000000E30100004F00000087
:402A8000030200006F0000001F0000000F000000FF000000E80100004D000000080200006D0000001F0000000F000000FF000000EC0100004A0000000C0200006A000000EC
:402AC0001F0000000F000000FF000000F10100004800000011020000680000001F0000000F000000FF000000F60100004600000016020000660000001F0000000F000000DE
:402B0000FF000000FB010000440000001B020000640000001F0000000F000000FF000000000200004200000020020000620000001F0000000F000000FF00000004020000AD
:402B40004000000024020000600000001F0000000F000000FF000000090200003E000000290200005E0000001F0000000F000000FF0000000E0200003C0000002E020000E7
:402B80005C0000001F0000000F000000FF000000130200003B000000330200005B0000001F0000000F000000FF000000180200003900000038020000590000001F0000007A
:402BC0000F000000FF0000001D020000380000003D020000580000001F0000000F000000FF000000220200003600000042020000560000001F0000000F000000FF0000008B
:402C0000270200003500000047020000550000001F0000000F000000FF0000002D020000340000004D020000540000001F0000000F000000FF0000003202000033000000D1
:402C400052020000530000001F0000000F000000FF000000370200003200000057020000520000001F0000000F000000FF0000003C020000310000005C020000510000001F
:402C80001F0000000F000000FF000000410200003000000061020000500000001F0000000F000000FF000000460200002F000000660200004F0000001F0000000F00000038
:402CC000FF0000004B0200002E0000006B0200004E0000001F0000000F000000FF000000510200002E000000710200004E0000001F0000000F000000FF00000056020000AB
:402D00002D000000760200004D0000001F0000000F000000FF0000005B0200002D0000007B0200004D0000001F0000000F000000FF000000600200002C00000080020000E3
:402D40004C0000001F0000000F000000FF000000660200002C000000860200004C0000001F0000000F000000FF0000006B0200002C0000008B0200004C0000001F000000B4
:402D80000F000000FF000000700200002C000000900200004C0000001F0000000F000000FF000000750200002C000000950200004C0000001F0000000F000000FF000000A9
:402DC0007A0200002C0000009A0200004C0000001F0000000F000000FF000000800200002C000000A00200004C0000001F0000000F000000FF000000850200002D00000099
:402E0000A50200004D0000001F0000000F000000FF0000008A0200002D000000AA0200004D0000001F0000000F000000FF0000008F0200002E000000AF0200004E000000D4
:402E40001F0000000F000000FF000000950200002E000000B50200004E0000001F0000000F000000FF0000009A0200002F000000BA0200004F0000001F0000000F0000002A
:402E8000FF0000009F02000030000000BF020000500000001F0000000F000000FF000000A402000031000000C4020000510000001F0000000F000000FF000000A90200003E
:402EC00032000000C9020000520000001F0000000F000000FF000000AE02000033000000CE020000530000001F0000000F000000FF000000B302000034000000D302000065
:402F0000540000001F0000000F000000FF000000B902000035000000D9020000550000001F0000000F000000FF000000BE02000036000000DE020000560000001F00000078
:402F40000F000000FF000000C302000038000000E3020000580000001F0000000F000000FF000000C802000039000000E8020000590000001F0000000F000000FF00000069
:402F8000CD0200003B000000ED0200005B0000001F0000000F000000FF000000D20200003C000000F20200005C0000001F0000000F000000FF000000D70200003E000000EC
:402FC000F70200005E0000001F0000000F000000FF000000DC02000040000000FC020000600000001F0000000F000000FF000000E00200004200000000030000620000001B
:403000001F0000000F000000FF000000E50200004400000005030000640000001F0000000F000000FF000000EA020000460000000A030000660000001F0000000F000000CC
:40304000FF000000EF020000480000000F030000680000001F0000000F000000FF000000F40200004A000000140300006A0000001F0000000F000000FF000000F802000089
:403080004D000000180300006D0000001F0000000F000000FF000000FD0200004F0000001D0300006F0000001F0000000F000000FF0000000103000052000000210300008A
:4030C000720000001F0000000F000000FF000000060300005400000026030000740000001F0000000F000000FF0000000B030000570000002B030000770000001F000000E1
:403100000F000000FF0000000F0300005A0000002F0300007A0000001F0000000F000000FF000000130300005C000000330300007C0000001F0000000F000000FF000000EB
:40314000180300005F000000380300007F0000001F0000000F000000FF0000001C030000620000003C030000820000001F0000000F000000FF0000002003000065000000F7
:4031800040030000850000001F0000000F000000FF000000250300006800000045030000880000001F0000000F000000FF000000290300006C000000490300008C0000001D
:4031C0001F0000000F000000FF0000002D0300006F0000004D0300008F0000001F0000000F000000FF000000310300007200000051030000920000001F0000000F0000003D
:40320000FF000000350300007600000055030000960000001F0000000F000000FF000000390300007900000059030000990000001F0000000F000000FF0000003D030000AF
:403240007D0000005D0300009D0000001F0000000F000000FF000000400300008000000060030000A00000001F0000000F000000FF00000044030000840000006403000082
:40328000A40000001F0000000F000000FF000000480300008800000068030000A80000001F0000000F000000FF0000004B0300008B0000006B030000AB0000001F00000019
:4032C0000F000000FF0000004F0300008F0000006F030000AF0000001F0000000F000000FF000000520300009300000072030000B30000001F0000000F000000FF00000054
:40330000560300009700000076030000B70000001F0000000F000000FF000000590300009B00000079030000BB0000001F0000000F000000FF0000005C0300009F000000E7
:403340007C030000BF0000001F0000000F000000FF00000060030000A300000080030000C30000001F0000000F000000FF00000063030000A800000083030000C80000000D
:403380001F0000000F000000FF00000066030000AC00000086030000CC0000001F0000000F000000FF00000069030000B000000089030000D00000001F0000000F000000A3
:4033C000FF0000006C030000B50000008C030000D50000001F0000000F000000FF0000006E030000B90000008E030000D90000001F0000000F000000FF00000071030000E4
:40340000BD00000091030000DD0000001F0000000F000000FF00000074030000C200000094030000E20000001F0000000F000000FF00000076030000C70000009603000079
:40344000E70000001F0000000F000000FF00000079030000CB00000099030000EB0000001F0000000F000000FF0000007B030000D00000009B030000F00000001F00000042
:403480000F000000FF0000007E030000D40000009E030000F40000001F0000000F000000FF00000080030000D9000000A0030000F90000001F0000000F000000FF000000C2
:4034C00082030000DE000000A2030000FE0000001F0000000F000000FF00000084030000E3000000A4030000030100001F0000000F000000FF00000086030000E8000000E6
:40350000A6030000080100001F0000000F000000FF00000088030000EC000000A80300000C0100001F0000000F000000FF0000008A030000F1000000AA0300001101000013
:403540001F0000000F000000FF0000008C030000F6000000AC030000160100001F0000000F000000FF0000008D030000FB000000AD0300001B0100001F0000000F00000021
:40358000FF0000008F03000000010000AF030000200100001F0000000F000000FF0000009003000005010000B0030000250100001F0000000F000000FF0000009203000045
:4035C0000A010000B20300002A0100001F0000000F000000FF000000930300000F010000B30300002F0100001F0000000F000000FF0000009403000015010000B403000096
:40360000350100001F0000000F000000FF000000950300001A010000B50300003A0100001F0000000F000000FF000000960300001F010000B60300003F0100001F00000083
:403640000F000000FF0000009703000024010000B7030000440100001F0000000F000000FF0000009803000029010000B8030000490100001F0000000F000000FF0000005A
:40368000990300002E010000B90300004E0100001F0000000F000000FF0000009A03000033010000BA030000530100001F0000000F000000FF0000009A0300003901000021
:4036C000BA030000590100001F0000000F000000FF0000009B0300003E010000BB0300005E0100001F0000000F000000FF0000009B03000043010000BB030000630100005B
:403700001F0000000F000000FF0000009C03000048010000BC030000680100001F0000000F000000FF0000009C0300004E010000BC0300006E0100001F0000000F000000D5
:40374000FF0000009C03000053010000BC030000730100001F0000000F000000FF0000000000000000000000FF040000CF0200000000000000000000FF0000002C010000F7
:4037800058020000F401000090010000FF000000000000000000000090010000F401000020030000C800000000000000FF0000000000000058020000000000005C02000002
:4037C000CF020000FF000000FF00000000000000BC02000068010000640000006801000023000000CE00000040000000BC0200006D010000640000006301000006000000DB
:4038000087000000EE000000BC02000072010000640000005E010000C400000067000000B7000000BC0200007801000064000000580100007A00000070000000F00000006F
:40384000BB0200007D010000650000005301000093000000C7000000B6000000BB02000082010000650000004E01000024000000B000000064000000BA02000087010000D4
:40388000660000004901000020000000A30000007E000000BA0200008D0100006600000043010000100000008500000050000000B902000092010000670000003E0100004A
:4038C000D90000000200000033000000B8020000970100006800000039010000E00000003700000051000000B70200009C010000690000003401000057000000CC00000047
:4039000091000000B6020000A10100006A0000002F010000CF0000001500000030000000B5020000A60100006B0000002A010000A000000010000000BD000000B4020000D7
:40394000AB0100006C0000002501000099000000CB00000028000000B3020000B10100006D0000001F010000BC000000C1000000E0000000B2020000B60100006E00000053
:403980001A0100006D0000002F0000004D000000B0020000BB010000700000001501000051000000700000005C000000AF020000C001000071000000100100009F0000005F
:4039C000EF00000049000000AD020000C5010000730000000B0100003E000000EA000000EC000000AC020000CA01000074000000060100004F00000013000000C70000006A
:403A0000AA020000CF0100007600000001010000210000007500000070000000A8020000D401000078000000FC0000009A0000002000000098000000A6020000D8010000C6
:403A40007A000000F8000000210000001D00000070000000A4020000DD0100007C000000F300000045000000F000000083000000A2020000E20100007E000000EE00000088
:403A8000710000004E00000077000000A0020000E701000080000000E9000000C60000002B000000050000009E020000EC01000082000000E4000000B40000009A000000A6
:403AC000690000009B020000F001000085000000E0000000E900000079000000E900000099020000F501000087000000DB0000007E000000EC000000B30000009602000077
:403B0000F90100008A000000D7000000B1000000010000008900000094020000FE0100008C000000D200000069000000A00000008A00000091020000030200008F00000042
:403B4000CD000000370000008C000000DC0000008E0200000702000092000000C9000000010000001F000000C50000008C0200000B02000094000000C50000000500000007
:403B80002400000051000000890200001002000097000000C0000000E60000009C0000000400000086020000140200009A000000BC0000004F00000031000000460000005C
:403BC00083020000180200009D000000B800000006000000D3000000C2000000800200001D020000A0000000B3000000B7000000D1000000C20000007C0200002102000057
:403C0000A4000000AF0000001E00000062000000070000007902000025020000A7000000AB00000000000000010000002A0000007602000029020000AA000000A700000097
:403C400026000000830000006A000000720200002D020000AE000000A30000009700000046000000970000006F02000031020000B10000009F000000950000001F00000021
:403C8000140000006B02000035020000B50000009B000000080000002A000000850000006802000038020000B800000098000000D60000004E000000300000006402000097
:403CC0003C020000BC0000009400000010000000F10000003E0000006002000040020000C0000000900000009F000000340000003D0000005D02000043020000C30000008C
:403D00008D000000BD00000027000000D10000005902000047020000C70000008900000017000000F9000000A6000000550200004A020000CB00000086000000480000005B
:403D4000DD00000007000000510200004E020000CF00000082000000C2000000E40000009D0000004D02000051020000D30000007F000000B700000076000000C100000046
:403D80004902000054020000D70000007C0000000100000031000000170000004502000058020000DB000000780000002A000000F0000000D8000000400200005B02000041
:403DC000E00000007500000023000000A8000000090000003C0200005E020000E400000072000000250000002F000000A40000003802000061020000E80000006F000000BA
:403E0000DA000000D90000007D0000003302000064020000ED0000006C000000C700000046000000F60000002F02000066020000F10000006A000000FC0000001500000056
:403E4000540000002B02000069020000F5000000670000004400000037000000C3000000260200006C020000FA000000640000005D000000270000002A00000021020000F7
:403E80006E020000FF00000062000000E3000000F1000000830000001D02000071020000030100005F000000040000006A0000001F000000180200007302000008010000C0
:403EC0005D000000F200000044000000E300000014020000760200000C0100005A000000E4000000C5000000E70000000F02000078020000110100005800000004000000CE
:403F0000F4000000130000000A0200007A0200001601000056000000480000007C000000F7000000050200007C0200001B01000054000000900000004500000020000000E0
:403F4000000200007E020000200100005200000027000000440000006E000000FC010000800200002401000050000000640000006C0000009C000000F70100008202000097
:403F8000290100004E000000710000000300000008000000F2010000840200002E0100004C00000065000000F90000008A000000ED01000085020000330100004B0000003D
:403FC000E8000000520000004A000000E8010000870200003801000049000000E0000000C600000064000000E3010000880200003D01000048000000E00000006C000000FF
:4040000076000000DE0100008A02000042010000460000006C00000074000000B1000000D90100008B020000470100004500000018000000BB00000021000000D3010000C9
:404040008C0200004D010000440000007E0000004200000096000000CE0100008D02000052010000430000003A000000F300000010000000C90100008E02000057010000E7
:40408000420000002E0000009F0000004A000000C40100008F0200005C010000410000002200000030000000F3000000BF0100009002000061010000400000004B0000002F
:4040C0003C000000A8000000BA01000091020000660100003F00000001000000130000004E000000B5010000920200006B0100003E00000039000000B1000000B2000000F6
:40410000AF01000092020000710100003E000000D90000008E00000091000000AA01000093020000760100003D00000087000000DB00000071000000A50100009302000091
:404140007B0100003D00000061000000970000004D000000A001000094020000800100003C000000190000005E000000380000009A01000094020000860100003C000000AA
:40418000A4000000C60000006D00000095010000940200008B0100003C0000009E00000047000000790000009001000094020000900100003C00000050000000D2000000C0
:4041C000BD0000008B01000094020000950100003C00000024000000110000008700000086010000940200009A0100003C000000BD000000D5000000B70000008001000094
:4042000094020000A00100003C000000E200000029000000330000007B01000093020000A50100003D000000E0000000750000002F0000007601000093020000AA0100009E
:404240003D000000B8000000E1000000CB0000007101000092020000AF0100003E000000D600000089000000350000006B01000092020000B50100003E000000870000009A
:40428000D7000000360000006601000091020000BA0100003F000000B6000000DB000000780000006101000090020000BF0100004000000075000000F0000000A0000000FB
:4042C0005C0100008F020000C401000041000000CD0000006600000051000000570100008E020000C90100004200000060000000B700000031000000520100008D02000028
:40430000CE010000430000007C0000001E000000230000004D0100008C020000D301000044000000F1000000A00000006F000000470100008B020000D901000045000000C6
:40434000B400000087000000A6000000420100008A020000DE01000046000000C60000009D000000800000003D01000088020000E3010000480000007B0000001C000000FA
:40438000E90000003801000087020000E8010000490000006E0000006C000000070000003301000085020000ED0100004B00000082000000F5000000460000002E0100005F
:4043C00084020000F20100004C000000BD0000001D000000C40000002901000082020000F70100004E000000C3000000890000002B0000002401000080020000FC0100004B
:4044000050000000ED0000003500000005000000200100007E0200000002000052000000990000009A000000770000001B0100007C020000050200005400000098000000D9
:40444000B800000068000000160100007A0200000A02000056000000980000006C0000001F00000011010000780200000F02000058000000590000008B000000200000000B
:404480000C01000076020000140200005A0000001400000049000000AC0000000801000073020000180200005D000000740000007F0000000E000000030100007102000091
:4044C0001D0200005F000000120000005600000055000000FF0000006E0200002102000062000000FB000000BF000000A4000000FA0000006C02000026020000640000003B
:40450000E1000000820000005F000000F5000000690200002B02000067000000E10000003E00000029000000F1000000660200002F0200006A000000A700000041000000A1
:4045400028000000ED00000064020000330200006C000000460000004C00000001000000E800000061020000380200006F0000003A000000AA000000FA000000E4000000D6
:404580005E0200003C02000072000000410000009D000000F7000000E00000005B02000040020000750000007D0000004C00000098000000DB000000580200004502000045
:4045C000780000008A000000210000008C000000D700000054020000490200007C000000260000004100000086000000D3000000510200004D0200007F000000CF00000068
:40460000B70000007F000000CF0000004E0200005102000082000000E3000000F200000075000000CB0000004A020000550200008600000049000000EC0000007E0000005F
:40464000C7000000470200005902000089000000DF000000360000001D000000C3000000430200005D0200008D0000001F0000009200000076000000C000000040020000F7
:4046800060020000900000005F000000C000000074000000BC0000003C0200006402000094000000B4000000ED000000D1000000B80000003802000068020000980000001B
:4046C0000A000000F6000000E2000000B5000000350200006B0200009B000000A200000002000000F9000000B1000000310200006F0200009F00000062000000650000008C
:4047000082000000AE0000002D02000072020000A30000008C000000F4000000DA000000AA0000002902000076020000A700000079000000DF00000063000000A700000053
:404740002502000079020000AB0000000C0000004E00000051000000A4000000210200007C020000AF000000750000007C000000B4000000A00000001D0200008002000067
:40478000B30000005D000000F0000000440000009D0000001802000083020000B8000000BE000000E7000000950000009A0000001402000086020000BC000000E7000000AC
:4047C0000E0000008D000000970000001002000089020000C0000000000000002700000067000000940000000B0200008C020000C50000003B000000880000004F00000096
:4048000092000000070200008E020000C9000000B4000000950000003C0000008F0000000302000091020000CD0000001000000000000000300000008C000000FE01000040
:4048400094020000D20000007D0000009D0000001F0000008A000000F901000096020000D700000021000000500000001600000087000000F501000099020000DB0000002A
:404880006800000047000000A000000085000000F00100009B020000E000000038000000A60000003100000082000000EC0100009E020000E400000018000000EA000000B2
:4048C0008E00000080000000E7010000A0020000E90000006A0000001C0000008C0000007E000000E2010000A2020000EE0000001C0000003C000000230000007C0000003B
:40490000DD010000A4020000F30000005300000058000000EC0000007A000000D8010000A6020000F8000000E2000000C90000001200000078000000D4010000A8020000C2
:40494000FC0000006B000000650000006900000076000000CF010000AA02000001010000F80000003C0000001B00000074000000CA010000AC02000006010000CC000000FF
:404980000B000000F400000073000000C5010000AD0200000B010000CC000000F4000000C300000071000000C0010000AF020000100100009B000000FC0000008F00000067
:4049C00070000000BB010000B0020000150100007E00000040000000310000006E000000B6010000B20200001A0100007D000000B5000000FB0000006D000000B101000094
:404A0000B30200001F0100005500000038000000580000006C000000AB010000B40200002501000017000000A1000000600000006B000000A6010000B50200002A010000BC
:404A4000E20000006C000000E30000006A000000A1010000B60200002F01000039000000CB000000DA000000690000009C010000B7020000340100006C000000960000003D
:404A8000170000006800000097010000B8020000390100003F00000097000000840000006700000092010000B90200003E010000E9000000A90000007F0000006600000026
:404AC0008D010000BA02000043010000A1000000160000000A0000006600000087010000BA02000049010000BF00000052000000100000006500000082010000BB020000AD
:404B00004E010000EB0000000D00000011000000650000007D010000BB02000053010000920000006F000000060000006400000078010000BC020000580100000C00000022
:404B40003C000000200000006400000072010000BC0200005E010000A0000000790000001C000000640000006D010000BC020000630100006F000000E500000090000000D8
:404B80006400000068010000BC02000068010000BA000000FA000000950000006400000063010000BC0200006D01000080000000870000009A000000640000005E01000060
:404BC000BC02000072010000C200000099000000B80000006400000058010000BC020000780100006E000000A40000002D0000006500000053010000BB0200007D0100004A
:404C0000DF000000400000005A000000650000004E010000BB020000820100004D000000F6000000310000006600000049010000BA0200008701000018000000B0000000D7
:404C4000180000006600000043010000BA0200008D010000320000009A000000B4000000670000003E010000B902000092010000E300000099000000DB00000068000000F5
:404C800039010000B802000097010000AC000000C8000000880000006900000034010000B70200009C01000001000000320000006F0000006A0000002F010000B602000084
:404CC000A10100008E00000062000000A40000006B0000002A010000B5020000A601000095000000C30000002C0000006C00000025010000B4020000AB0100008000000092
:404D000061000000F90000006D0000001F010000B3020000B1010000EE000000E3000000710000006E0000001A010000B2020000B6010000BF000000E70000005F000000EA
:404D40007000000015010000B0020000BB0100001D00000085000000560000007100000010010000AF020000C0010000D80000002F00000035000000730000000B01000098
:404D8000AD020000C501000087000000150000003D0000007400000006010000AC020000CA010000A10000001C0000009A0000007600000001010000AA020000CF01000066
:404DC000E20000007D0000004F00000078000000FC000000A8020000D4010000C2000000F3000000A40000007A000000F8000000A6020000D80100007B0000006F000000DC
:404E00002F0000007C000000F3000000A4020000DD010000700000007C000000DB0000007E000000EE000000A2020000E2010000B60000009E0000001600000080000000AC
:404E4000E9000000A0020000E70100001C000000920000007500000082000000E40000009E020000EC0100008B000000090000009300000085000000E00000009B02000080
:404E8000F0010000A00000007A0000002800000087000000DB00000099020000F5010000C0000000CA0000004A0000008A000000D700000096020000F90100008100000084
:404EC0003C000000310000008C000000D200000094020000FE010000CE00000011000000310000008F000000CD0000009102000003020000F8000000920000009400000030
:404F000092000000C90000008E02000007020000F200000019000000E000000094000000C50000008C0200000B020000E3000000360000002A00000097000000C000000004
:404F40008902000010020000A40000002D0000001D0000009A000000BC00000086020000140200005D00000066000000160000009D000000B80000008302000018020000E5
:404F8000AE0000008B000000FB000000A0000000B3000000800200001D02000036000000EA000000A9000000A4000000AF0000007C02000021020000BD00000060000000EF
:404FC00079000000A7000000AB00000079020000250200001B000000E100000071000000AA000000A70000007602000029020000AA000000B900000048000000AE0000008A
:40500000A3000000720200002D020000970000005E000000CA000000B10000009F0000006F0200003102000012000000FD000000C5000000B50000009B0000006B020000E6
:405040003502000001000000E2000000DC000000B8000000980000006802000038020000B1000000E100000076000000BC00000094000000640200003C0200005E000000EC
:4050800015000000FE000000C0000000900000006002000040020000DD00000000000000AD000000C30000008D0000005D02000043020000A60000006900000079000000E3
:4050C000C7000000890000005902000047020000630000007300000006000000CB00000086000000550200004A0200006C0000001A0000000A000000CF000000820000000B
:40510000510200004E0200008D0000009B000000BC000000D30000007F0000004D0200005102000041000000B9000000B5000000D70000007C000000490200005402000051
:4051400080000000E3000000C6000000DB0000007800000045020000580200007E000000C2000000AA000000E000000075000000400200005B020000F90000001D0000001E
:40518000DD000000E4000000720000003C0200005E020000900000001E000000F7000000E80000006F0000003802000061020000D60000000F00000046000000ED0000006D
:4051C0006C0000003302000064020000680000009F000000EA000000F10000006A0000002F0200006602000069000000B5000000F7000000F5000000670000002B02000025
:40520000690200006F000000A2000000E5000000FA00000064000000260200006C020000DE0000002400000033000000FF00000062000000210200006E0200009E00000052
:40524000C50000003E000000030100005F0000001D020000710200005E0000005600000074000000080100005D00000018020000730200002B000000BE0000001800000018
:405280000C0100005A0000001402000076020000E300000014000000C700000011010000580000000F02000078020000D8000000720000009A0000001601000056000000F5
:4052C0000A0200007A0200005A000000C1000000960000001B01000054000000050200007C0200009B000000D7000000740000002001000052000000000200007E020000A5
:40530000E10000007D0000009E0000002401000050000000FC010000800200008F000000B80000008B000000290100004E000000F701000082020000C8000000710000007E
:40534000E80000002E0100004C000000F20100008402000016000000FE000000B9000000330100004B000000ED010000850200008E00000024000000D500000038010000D0
:4053800049000000E801000087020000B80000006A000000450000003D01000048000000E3010000880200005000000094000000AF0000004201000046000000DE010000DC
:4053C0008A020000DC00000035000000810000004701000045000000D90100008B0200006C0000003D000000C10000004D01000044000000D30100008C020000C900000074
:4054000062000000510000005201000043000000CE0100008D0200007A00000047000000280000005701000042000000C90100008E02000064000000480000003D000000FF
:405440005C01000041000000C40100008F020000A3000000F40000002F0000006101000040000000BF01000090020000E70000009100000031000000660100003F0000002F
:40548000BA01000091020000B3000000A6000000540000006B0100003E000000B501000092020000850000000600000005000000710100003E000000AF0100009202000079
:4054C000CB0000001B000000AF000000760100003D000000AA01000093020000C5000000C9000000B40000007B0100003D000000A501000093020000F10000004B000000B1
:40550000FD000000800100003C000000A0010000940200008D000000A7000000F1000000860100003C0000009A0100009402000039000000FA0000002B0000008B01000077
:405540003C0000009501000094020000EF000000F40000002C000000900100003C00000090010000940200000D000000440000008B000000950100003C0000008B01000086
:4055800094020000C500000099000000500000009A0100003C00000086010000940200006E000000D60000009F000000A00100003C00000080010000940200004500000097
:4055C00083000000E2000000A50100003D0000007B010000930200002C000000D10000002E000000AA0100003D000000760100009302000018000000070000000200000012
:40560000AF0100003E0000007101000092020000F6000000E20000000C000000B50100003E0000006B01000092020000AA000000F900000038000000BA0100003F000000C9
:405640006601000091020000150000005B000000BA000000BF0100004000000061010000900200009900000073000000E8000000C4010000410000005C0100008F0200002A
:40568000000000008200000024000000C901000042000000570100008E0200008000000090000000A3000000CE01000043000000520100008D02000034000000560000001F
:4056C00053000000D3010000440000004D0100008C0200009C00000096000000AF000000D901000045000000470100008B0200002A000000A6000000C4000000DE0100001B
:4057000046000000420100008A0200006400000065000000B0000000E3010000480000003D010000880200003C000000F100000022000000E801000049000000380100002D
:4057400087020000820000000A0000004F000000ED0100004B000000330100008502000052000000F100000034000000F20100004C0000002E010000840200007C000000EA
:4057800071000000D1000000F70100004E000000290100008202000004000000C900000089000000FC0100005000000024010000800200000B00000083000000710000006A
:4057C0000002000052000000200100007E0200007D000000A80000008000000005020000540000001B0100007C020000BD000000F0000000CB0000000A0200005600000040
:40580000160100007A0200006F00000017000000EE0000000F02000058000000110100007802000060000000C1000000CC000000140200005A0000000C010000760200008A
:40584000CD0000009700000052000000180200005D0000000801000073020000BE00000079000000830000001D0200005F00000003010000710200007A0000006C000000E8
:405880002C0000002102000062000000FF0000006E02000047000000DF000000DE0000002602000064000000FA0000006C0200007C0000009A000000B70000002B020000D6
:4058C00067000000F5000000690200002300000094000000310000002F0200006A000000F1000000660200001000000010000000EF000000330200006C000000ED00000068
:40590000640200008400000026000000A4000000380200006F000000E800000061020000940000004F000000AB0000003C02000072000000E40000005E02000065000000D8
:40594000370000003D0000004002000075000000E00000005B0200006200000008000000580000004502000078000000DB000000580200008C0000008E00000011000000DE
:40598000490200007C000000D7000000540200009400000079000000A80000004D0200007F000000D300000051020000C800000030000000F5000000510200008200000088
:4059C000CF0000004E02000088000000E9000000A40000005502000086000000CB0000004A020000270000000D000000030000005902000089000000C70000004702000054
:405A00003200000086000000250000005D0200008D000000C300000043020000120000008D000000FA0000006002000090000000C0000000400200002900000027000000B8
:405A4000290000006402000094000000BC0000003C02000014000000B7000000710000006802000098000000B800000038020000820000009A000000E10000006B0200006F
:405A80009B000000B5000000350200001F0000004A0000000F0000006F0200009F000000B10000003102000024000000110000002F00000072020000A3000000AE000000CA
:405AC0002D020000C4000000E40000008400000076020000A7000000AA00000029020000D70000003A0000006D00000079020000AB000000A7000000250200005D00000088
:405B0000B1000000F00000007C020000AF000000A40000002102000037000000C00000008400000080020000B3000000A00000001D020000C1000000E00000003C00000084
:405B400083020000B80000009D00000018020000EF000000060000008F00000086020000BC0000009A00000014020000E30000002A0000006C00000089020000C0000000F5
:405B800097000000100200005300000090000000D20000008C020000C5000000940000000B020000630000009E000000F60000008E020000C90000009200000007020000A8
:405BC000D3000000CF000000F300000091020000CD0000008F000000030200002E000000AA000000BB00000094020000D20000008C000000FE010000D0000000AD00000019
:405C00005400000096020000D70000008A000000F9010000080000001E0000004800000099020000DB00000087000000F5010000D5000000E5000000720000009B020000F3
:405C4000E000000085000000F0010000FC00000008000000DB0000009E020000E400000082000000EC01000086000000F8000000DF000000A0020000E90000008000000094
:405C8000E7010000290000005A0000000E000000A2020000EE0000007E000000E2010000710000007000000053000000A4020000F30000007C000000DD010000E900000068
:405CC0007E000000B5000000A6020000F80000007A000000D8010000A9000000D400000041000000A8020000FC00000078000000D4010000C4000000680000000E00000093
:405D0000AA0200000101000076000000CF010000DE000000F70000001D000000AC0200000601000074000000CA01000081000000C00000001C000000AD0200000B01000071
:405D400073000000C5010000080000007000000021000000AF0200001001000071000000C0010000F7000000EF000000ED000000B00200001501000070000000BB01000096
:405D8000FA000000B0000000B3000000B20200001A0100006E000000B60100005E0000001000000071000000B30200001F0100006D000000B10100008A00000089000000AC
:405DC000C8000000B4020000250100006C000000AB01000099000000F1000000A0000000B50200002A0100006B000000A6010000E00000001F000000CF000000B602000043
:405E00002F0100006A000000A1010000F90000003A000000E8000000B702000034010000690000009C010000AC000000B8000000AE000000B80200003901000068000000A9
:405E400097010000CB00000087000000C0000000B90200003E010000670000009201000080000000E70000001F000000BA02000043010000660000008D010000D900000031
:405E80002C000000C2000000BA020000490100006600000087010000750000009A0000005C000000BB0200004E010000650000008201000066000000BA000000F30000008E
:405EC000BB02000053010000650000007D010000E00000009B000000F6000000BC020000580100006400000078010000A1000000C6000000E5000000BC0200005E010000E0
:405F000064000000720100003900000019000000D3000000BC02000063010000640000006D0100006C000000B9000000EE000000740400006801000094020000780000006F
:405F40001F0000000F000000FF000000740400006D01000099020000750000001F0000000F000000FF00000074040000720100009D020000720000001F0000000F000000A7
:405F8000FF0000007404000078010000A10200006F0000001F0000000F000000FF000000730400007D010000A60200006C0000001F0000000F000000FF0000007304000005
:405FC00082010000AA020000690000001F0000000F000000FF0000007204000087010000AF020000660000001F0000000F000000FF000000720400008D010000B3020000E1
:40600000640000001F0000000F000000FF0000007104000092010000B8020000610000001F0000000F000000FF0000007004000097010000BC0200005F0000001F00000037
:406040000F000000FF0000006F0400009C010000C10200005C0000001F0000000F000000FF0000006E040000A1010000C60200005A0000001F0000000F000000FF00000053
:406080006D040000A6010000CA020000580000001F0000000F000000FF0000006C040000AB010000CF020000550000001F0000000F000000FF0000006B040000B1010000E7
:4060C000D4020000530000001F0000000F000000FF0000006A040000B6010000D9020000510000001F0000000F000000FF00000068040000BB010000DE0200004F00000075
:406100001F0000000F000000FF00000067040000C0010000E30200004E0000001F0000000F000000FF00000065040000C5010000E80200004C0000001F0000000F00000013
:40614000FF00000064040000CA010000EC0200004A0000001F0000000F000000FF00000062040000CF010000F1020000490000001F0000000F000000FF0000006004000085
:40618000D4010000F7020000470000001F0000000F000000FF0000005E040000D8010000FC020000460000001F0000000F000000FF0000005C040000DD01000001030000AF
:4061C000450000001F0000000F000000FF0000005A040000E201000006030000430000001F0000000F000000FF00000058040000E70100000B030000420000001F000000C0
:406200000F000000FF00000056040000EC01000010030000410000001F0000000F000000FF00000053040000F001000015030000400000001F0000000F000000FF000000BB
:4062400051040000F50100001A0300003F0000001F0000000F000000FF0000004E040000F90100001F0300003F0000001F0000000F000000FF0000004C040000FE01000021
:40628000250300003E0000001F0000000F000000FF00000049040000030200002A0300003E0000001F0000000F000000FF00000046040000070200002F0300003D0000009F
:4062C0001F0000000F000000FF000000440400000B020000340300003D0000001F0000000F000000FF00000041040000100200003A0300003C0000001F0000000F0000007D
:40630000FF0000003E040000140200003F0300003C0000001F0000000F000000FF0000003B04000018020000440300003C0000001F0000000F000000FF0000003804000016
:406340001D020000490300003C0000001F0000000F000000FF00000034040000210200004E0300003C0000001F0000000F000000FF00000031040000250200005403000081
:406380003C0000001F0000000F000000FF0000002E04000029020000590300003C0000001F0000000F000000FF0000002A0400002D0200005E0300003D0000001F00000038
:4063C0000F000000FF0000002704000031020000630300003D0000001F0000000F000000FF0000002304000035020000690300003E0000001F0000000F000000FF0000002C
:4064000020040000380200006E0300003E0000001F0000000F000000FF0000001C0400003C020000730300003F0000001F0000000F000000FF000000180400004002000084
:4064400078030000400000001F0000000F000000FF00000015040000430200007D030000410000001F0000000F000000FF00000011040000470200008203000042000000C3
:406480001F0000000F000000FF0000000D0400004A02000088030000430000001F0000000F000000FF000000090400004E0200008D030000440000001F0000000F000000F8
:4064C000FF000000050400005102000092030000450000001F0000000F000000FF000000010400005402000097030000470000001F0000000F000000FF000000FD030000D1
:40650000580200009C030000480000001F0000000F000000FF000000F80300005B020000A1030000490000001F0000000F000000FF000000F40300005E020000A60300007B
:406540004B0000001F0000000F000000FF000000F003000061020000AB0300004D0000001F0000000F000000FF000000EB03000064020000B00300004F0000001F000000B0
:406580000F000000FF000000E703000066020000B5030000500000001F0000000F000000FF000000E303000069020000BA030000520000001F0000000F000000FF000000B9
:4065C000DE0300006C020000BE030000540000001F0000000F000000FF000000D90300006E020000C3030000560000001F0000000F000000FF000000D5030000710200002A
:40660000C8030000590000001F0000000F000000FF000000D003000073020000CD0300005B0000001F0000000F000000FF000000CC03000076020000D10300005D000000F1
:406640001F0000000F000000FF000000C703000078020000D6030000600000001F0000000F000000FF000000C20300007A020000DB030000620000001F0000000F00000094
:40668000FF000000BD0300007C020000DF030000650000001F0000000F000000FF000000B80300007E020000E4030000680000001F0000000F000000FF000000B4030000BB
:4066C00080020000E80300006A0000001F0000000F000000FF000000AF03000082020000EC0300006D0000001F0000000F000000FF000000AA03000084020000F1030000B0
:40670000700000001F0000000F000000FF000000A503000085020000F5030000730000001F0000000F000000FF000000A003000087020000F9030000760000001F00000038
:406740000F000000FF0000009B03000088020000FE030000790000001F0000000F000000FF000000960300008A020000020400007C0000001F0000000F000000FF00000068
:40678000910300008B02000006040000800000001F0000000F000000FF0000008B0300008C0200000A040000830000001F0000000F000000FF000000860300008D0200000F
:4067C0000E040000860000001F0000000F000000FF000000810300008E020000120400008A0000001F0000000F000000FF0000007C0300008F020000160400008D0000003C
:406800001F0000000F000000FF000000770300009002000019040000910000001F0000000F000000FF00000072030000910200001D040000950000001F0000000F00000058
:40684000FF0000006D0300009202000021040000990000001F0000000F000000FF0000006703000092020000240400009C0000001F0000000F000000FF00000062030000D6
:406880009302000028040000A00000001F0000000F000000FF0000005D030000930200002B040000A40000001F0000000F000000FF00000058030000940200002F04000031
:4068C000A80000001F0000000F000000FF000000520300009402000032040000AC0000001F0000000F000000FF0000004D0300009402000035040000B00000001F000000DB
:406900000F000000FF000000480300009402000038040000B40000001F0000000F000000FF00000043030000940200003B040000B90000001F0000000F000000FF0000004A
:406940003E030000940200003E040000BD0000001F0000000F000000FF000000380300009402000041040000C10000001F0000000F000000FF000000330300009302000045
:4069800044040000C60000001F0000000F000000FF0000002E0300009302000047040000CA0000001F0000000F000000FF00000029030000920200004A040000CF000000B7
:4069C0001F0000000F000000FF00000023030000920200004C040000D30000001F0000000F000000FF0000001E030000910200004F040000D80000001F0000000F00000053
:406A0000FF000000190300009002000051040000DC0000001F0000000F000000FF000000140300008F02000054040000E10000001F0000000F000000FF0000000F0300002B
:406A40008E02000056040000E60000001F0000000F000000FF0000000A0300008D02000058040000EA0000001F0000000F000000FF000000050300008C0200005B04000015
:406A8000EF0000001F0000000F000000FF000000FF0200008B0200005D040000F40000001F0000000F000000FF000000FA0200008A0200005F040000F90000001F000000A7
:406AC0000F000000FF000000F50200008802000061040000FE0000001F0000000F000000FF000000F00200008702000062040000030100001F0000000F000000FF00000065
:406B0000EB0200008502000064040000080100001F0000000F000000FF000000E602000084020000660400000C0100001F0000000F000000FF000000E102000082020000CA
:406B400067040000110100001F0000000F000000FF000000DC0200008002000069040000170100001F0000000F000000FF000000D80200007E0200006A0400001C01000074
:406B80001F0000000F000000FF000000D30200007C0200006B040000210100001F0000000F000000FF000000CE0200007A0200006D040000260100001F0000000F00000085
:406BC000FF000000C9020000780200006E0400002B0100001F0000000F000000FF000000C4020000760200006F040000300100001F0000000F000000FF000000C0020000B5
:406C00007302000070040000350100001F0000000F000000FF000000BB02000071020000710400003A0100001F0000000F000000FF000000B70200006E020000710400005D
:406C40003F0100001F0000000F000000FF000000B20200006C02000072040000450100001F0000000F000000FF000000AD02000069020000720400004A0100001F000000A2
:406C80000F000000FF000000A902000066020000730400004F0100001F0000000F000000FF000000A50200006402000073040000540100001F0000000F000000FF000000B9
:406CC000A002000061020000740400005A0100001F0000000F000000FF0000009C0200005E020000740400005F0100001F0000000F000000FF000000980200005B02000095
:406D000074040000640100001F0000000F000000FF000000930200005802000074040000690100001F0000000F000000FF0000008F02000054020000740400006E0100007D
:406D40001F0000000F000000FF0000008B0200005102000074040000740100001F0000000F000000FF000000870200004E02000074040000790100001F0000000F000000F3
:406D8000FF000000830200004A020000730400007E0100001F0000000F000000FF0000007F0200004702000073040000830100001F0000000F000000FF0000007B02000071
:406DC0004302000072040000890100001F0000000F000000FF0000007802000040020000720400008E0100001F0000000F000000FF000000740200003C020000710400000A
:406E0000930100001F0000000F000000FF000000700200003802000070040000980100001F0000000F000000FF0000006D020000350200006F0400009D0100001F000000D5
:406E40000F000000FF00000069020000310200006E040000A20100001F0000000F000000FF000000660200002D0200006D040000A80100001F0000000F000000FF00000046
:406E800062020000290200006C040000AD0100001F0000000F000000FF0000005F020000250200006B040000B20100001F0000000F000000FF0000005C02000021020000A0
:406EC00069040000B70100001F0000000F000000FF000000580200001D02000068040000BC0100001F0000000F000000FF000000550200001802000067040000C1010000D3
:406F00001F0000000F000000FF000000520200001402000065040000C60100001F0000000F000000FF0000004F0200001002000063040000CB0100001F0000000F00000099
:406F4000FF0000004C0200000B02000061040000D00100001F0000000F000000FF0000004A0200000702000060040000D50100001F0000000F000000FF000000470200004F
:406F8000030200005E040000DA0100001F0000000F000000FF00000044020000FE0100005C040000DE0100001F0000000F000000FF00000042020000F90100005A04000015
:406FC000E30100001F0000000F000000FF0000003F020000F501000057040000E80100001F0000000F000000FF0000003D020000F001000055040000ED0100001F00000042
:407000000F000000FF0000003A020000EC01000053040000F10100001F0000000F000000FF00000038020000E701000050040000F60100001F0000000F000000FF00000009
:4070400036020000E20100004E040000FB0100001F0000000F000000FF00000034020000DD0100004B040000FF0100001F0000000F000000FF00000032020000D8010000DD
:4070800048040000040200001F0000000F000000FF00000030020000D401000046040000080200001F0000000F000000FF0000002E020000CF010000430400000C02000074
:4070C0001F0000000F000000FF0000002C020000CA01000040040000110200001F0000000F000000FF0000002B020000C50100003D040000150200001F0000000F0000006D
:40710000FF00000029020000C00100003A040000190200001F0000000F000000FF00000028020000BB010000370400001E0200001F0000000F000000FF0000002602000048
:40714000B601000034040000220200001F0000000F000000FF00000025020000B101000030040000260200001F0000000F000000FF00000024020000AB0100002D0400006A
:407180002A0200001F0000000F000000FF00000023020000A60100002A0400002E0200001F0000000F000000FF00000022020000A101000026040000320200001F000000DC
:4071C0000F000000FF000000210200009C01000023040000360200001F0000000F000000FF00000020020000970100001F040000390200001F0000000F000000FF000000F0
:407200001F020000920100001B0400003D0200001F0000000F000000FF0000001E0200008D01000017040000410200001F0000000F000000FF0000001E020000870100002E
