:400000000080002011000000590400005904000008B5044B1A6803F53F5302331A6000F023FA00BFFA46004010B5054C237833B9044B13B10448AFF300800123237010BDA0
:40004000A0A8FF1F0000000018080000084B10B51BB108490848AFF300800848036803B910BD074B002BFBD0BDE81040184700BF00000000A4A8FF1F18080000C880FF1FC4
:40008000000000000168C1F30A0142681B4B03EAC22211438268C2F30A02C06803EAC0231A43174B002018705970081298700814D870090E1971012159719A711112D97185
:4000C00011141972120E5A7202229A72DA69DA721112197311145973110E99730321D973042119756FF07F439A4203D00832044BDA6170470022024BDA61704700F83F00D4
:40010000BCA8FF1F08B500F023FB08BD38B50546002415E0285DFFF7F5FF0B4B1868C0F101001860C0B200F007FB00F0FDFA074B1B689842F9D0C3F10103044A136001347C
:40014000042CE7DD38BD00BFE4A8FF1FF8A8FF1F30B589B062B600F0D9FA012000F08AFA224C00252560224B1D60642000F0D6F9012000F0F3FA642000F0D0F9284600F003
:40018000EDFA642000F0CAF9207800F0D5FA00230BE0C5EBC5021A44164951F8221008AA02EB830242F81C1C0133062BF1DD01A8FFF768FF6B1C104883FB00015D18DA177A
:4001C000C2EB25254FF4B47202FB1535002406E004EB840309481844FFF798FF0134042CF6DD43F6982000F0AFF9D0E7E4A8FF1FF8A8FF1FCC80FF1FB7600BB6BCA8FF1FFA
:40020000FEE700BFF0B40022174611E050F82760F3B226F0FF0608E001EB420511F812406D78A5550132013BDBB2002BF4D10137052FEBD9F0BC7047064B1B78DBB203F03F
:400240000701054A11701B09013213704422034B1A707047CF0100496E5800407658004008B50A46002100F0CEFA08BD38B502221E4B1A7008224FF040231A70032103F589
:40028000007319701A4B1B78DBB21A490B701A4B1A8041F25122023B1A80002419250CE0164B1B7803F0010343EA440404F003044FF4F07000F060FA013D0DB1032CEFD1E2
:4002C00015B90320FFF79CFF0D4B4FF480721A8007221A7000220B490A704820023108701A700222033B1A7038BD00BF0043004008010049A146004022420040254200402E
:40030000044000400640004008B500F071FA08BD38B572B6374A137843F00403137000240CE0354D630019194A0011462A44084691882858FFF794FF0134E4B2052CF0D98D
:400340002E494FF09040FFF75DFF2D4A137843F0020313701032137843F002031370294C237843F040032370A2F58632513A137843F010031370082223492448FFF7C4FF5E
:40038000082223492348FFF7BFFF0A2222492348FFF7BAFF082222492248FFF7B5FF082221492248FFF7B0FF082221492148FFF7ABFF082220492148FFF7A6FF0A222049C2
:4003C0002048FFF7A1FF204A137843F0080313701E4D61232B70FFF749FF81232B7001221B4B1A70FFF728FF0E2221461948FFF78BFF38BDE84600401C08000018000048B3
:4004000003500140A0430040680000480251004070000048C251004078000048F051004084000048125100408C0000482251004094000048325100409C000048425100402A
:40044000A400004860510040224300400048004004000840B043004008B500F09DF903680C2B00D1FEE7FEE708B5104E104D16E029686B68AC68002204E051F8040B43F8F4
:40048000040B0432A242F8D1E868002203E0002143F8041B04328242F9D11035013E002EE6D100F07FF9FFF753FEFEE7010000006808000008B5104A104B1A60104A136887
:4004C00043F40073136000230AE0032B03D80D4A52F8231000E00C490C4A42F8231001332F2BF2D90A4B1A780A4B1A70074A0A4B1A60FFF70DFF08BD0004FA050CED00E01B
:4005000014ED00E000000000590400000080FF1FBC760040C080FF1F08ED00E010B5044605E0084B186800F027F9A4F50044B4F5004FF6D8034B586800FB04F000F01CF9BE
:4005400010BD00BF2CA8FF1F08B5034B1B7A00FB03F000F011F908BD2CA8FF1F10B50B4C237803F09F032370237803F0F00323702378184340F0100020700120FFF7E4FF0B
:40058000237803F0EF03237010BD00BF2051004070B5354B1A7802F08002D2B21A7033490A7802F0F00242F00F020A7001310A7802F0F0020A7001310A7802F0F0020A706F
:4005C0001A7802F0DF021A701A7842F040021A704FF4CA760020FFF7B7FF234D2B7843F010032B700120FFF7AFFF214B1C78E4B22B7803F0EF032B700020FFF7A5FF04F00D
:400600000804E4B22B7843F010032B700120FFF79BFF2B7803F0EF032B7014B90A20FFF793FF013E0CB1002ED4D10F4A137803F0BF031370137803F08003DBB21370023211
:40064000137803F0F00313700132137803F0F00343F00F0313700132137803F0F00343F00F03137070BD00BF20510040225100402151004010B50446FFF78AFF2009FFF7FF
:400680006DFF04F00F00FFF769FF10BD08B52820FFF744FF0320FFF761FF0520FFF73EFF0320FFF75BFF0F20FFF738FF0320FFF755FF0120FFF732FF0220FFF74FFF052082
:4006C000FFF72CFF0620FFF7D5FF0E20FFF7D2FF2C20FFF7CFFF0820FFF7CCFF0120FFF7C9FF0C20FFF7C6FF0320FFF7C3FF0520FFF714FF08BD00BF08B50C20FFF7BAFF10
:400700000122014B1A7008BDE0A8FF1F08B5054B5B7823B9FFF7BAFF0122024B5A70FFF7EBFF08BDE0A8FF1F024B187800F00100704700BFC1510040044A137803F0DF0321
:40074000400100F0200018431070704730510040014B1870704700BF72640040044A137803F0FE0300F0010018431070704700BF40510040000000000230800803D000BF49
:4007800001380046FCD17047EFF3108072B6704780F31088704700BF014B1868704700BF9CA8FF1F0E4B70B51E460E4C0025E41AA410A54204D056F8253098470135F8E75B
:4007C00000F040F8084B094C1E46E41AA4100025A54204D056F8253098470135F8E770BD5008000050080000500800005808000010B5431E0A44914204D011F8014B03F89C
:40080000014FF8E710BD03460244934202D003F8011BFAE7704700000000000050510040100000000140001000140140000800400140000A004C014000020050014020006D
:4008400043000000F8B500BFF8BC08BC9E4670474D000000B5040000F8B500BFF8BC08BC9E4670472900000078080000C880FF1FD8270000680000000000000000000000BB
:4008800000000000FF040000020000000400000002000000020000000000000002000000FF040000040000000600000002000000020000000000000004000000FF04000011
:4008C000060000000800000002000000020000000000000006000000FF040000080000000A00000002000000020000000000000008000000FF0400000A0000000C000000A6
:400900000200000002000000000000000A000000FF0400000C0000000E0000000200000002000000000000000C000000FF0400000E00000010000000020000000200000057
:40094000000000000E000000FF040000100000001200000002000000020000000000000010000000FF040000120000001400000002000000020000000000000012000000F1
:40098000FF040000140000001600000002000000020000000000000014000000FF040000160000001800000002000000020000000000000016000000FF040000180000008C
:4009C0001A00000002000000020000000000000018000000FF0400001A0000001C0000000200000002000000000000001A000000FF0400001C0000001E000000020000002B
:400A000002000000000000001C000000FF0400001E000000200000000200000002000000000000001E000000FF0400002000000022000000020000000200000000000000EC
:400A400020000000FF040000220000002400000002000000020000000000000022000000FF040000240000002600000002000000020000000000000024000000FF0400006F
:400A8000260000002800000002000000020000000000000026000000FF040000280000002A00000002000000020000000000000028000000FF0400002A0000002C000000E4
:400AC0000200000002000000000000002A000000FF0400002C0000002E0000000200000002000000000000002C000000FF0400002E000000300000000200000002000000D6
:400B0000000000002E000000FF040000300000003200000002000000020000000000000030000000FF0400003200000034000000020000000200000000000000320000004F
:400B4000FF040000340000003600000002000000020000000000000034000000FF040000360000003800000002000000020000000000000036000000FF04000038000000EA
:400B80003A00000002000000020000000000000038000000FF0400003A0000003C0000000200000002000000000000003A000000FF0400003C0000003E0000000200000089
:400BC00002000000000000003C000000FF0400003E000000400000000200000002000000000000003E000000FF04000040000000420000000200000002000000000000006B
:400C000040000000FF040000420000004400000002000000020000000000000042000000FF040000440000004600000002000000020000000000000044000000FF040000CD
:400C4000460000004800000002000000020000000000000046000000FF040000480000004A00000002000000020000000000000048000000FF0400004A0000004C00000022
:400C80000200000002000000000000004A000000FF0400004C0000004E0000000200000002000000000000004C000000FF0400004E00000050000000020000000200000054
:400CC000000000004E000000FF040000500000005200000002000000020000000000000050000000FF040000520000005400000002000000020000000000000052000000AE
:400D0000FF040000540000005600000002000000020000000000000054000000FF040000560000005800000002000000020000000000000056000000FF0400005800000048
:400D40005A00000002000000020000000000000058000000FF0400005A0000005C0000000200000002000000000000005A000000FF0400005C0000005E00000002000000E7
:400D800002000000000000005C000000FF0400005E000000600000000200000002000000000000005E000000FF0400006000000062000000020000000200000000000000E9
:400DC00060000000FF040000620000006400000002000000020000000000000062000000FF040000640000006600000002000000020000000000000064000000FF0400002C
:400E0000660000006800000002000000020000000000000066000000FF040000680000006A00000002000000020000000000000068000000FF0400006A0000006C00000060
:400E40000200000002000000000000006A000000FF0400006C0000006E0000000200000002000000000000006C000000FF0400006E000000700000000200000002000000D2
:400E8000000000006E000000FF040000700000007200000002000000020000000000000070000000FF0400007200000074000000020000000200000000000000720000000C
:400EC000FF040000740000007600000002000000020000000000000074000000FF040000760000007800000002000000020000000000000076000000FF04000078000000A7
:400F00007A00000002000000020000000000000078000000FF0400007A0000007C0000000200000002000000000000007A000000FF0400007C0000007E0000000200000045
:400F400002000000000000007C000000FF0400007E000000800000000200000002000000000000007E000000FF040000800000008200000002000000020000000000000067
:400F800080000000FF040000820000008400000002000000020000000000000082000000FF040000840000008600000002000000020000000000000084000000FF0400008A
:400FC000860000008800000002000000020000000000000086000000FF040000880000008A00000002000000020000000000000088000000FF0400008A0000008C0000009F
:401000000200000002000000000000008A000000FF0400008C0000008E0000000200000002000000000000008C000000FF0400008E00000090000000020000000200000050
:40104000000000008E000000FF040000900000009200000002000000020000000000000090000000FF0400009200000094000000020000000200000000000000920000006A
:40108000FF040000940000009600000002000000020000000000000094000000FF040000960000009800000002000000020000000000000096000000FF0400009800000005
:4010C0009A00000002000000020000000000000098000000FF0400009A0000009C0000000200000002000000000000009A000000FF0400009C0000009E00000002000000A4
:4011000002000000000000009C000000FF0400009E000000A00000000200000002000000000000009E000000FF040000A0000000A2000000020000000200000000000000E5
:40114000A0000000FF040000A2000000A4000000020000000200000000000000A2000000FF040000A4000000A6000000020000000200000000000000A4000000FF040000E8
:40118000A6000000A8000000020000000200000000000000A6000000FF040000A8000000AA000000020000000200000000000000A8000000FF040000AA000000AC000000DD
:4011C000020000000200000000000000AA000000FF040000AC000000AE000000020000000200000000000000AC000000FF040000AE000000B00000000200000002000000CF
:4012000000000000AE000000FF040000B0000000B2000000020000000200000000000000B0000000FF040000B2000000B4000000020000000200000000000000B2000000C8
:40124000FF040000B4000000B2000000020000000400000000000000B4000000FF040000B6000000B0000000020000000600000000000000B6000000FF040000B800000069
:40128000AE000000020000000800000000000000B8000000FF040000BA000000AC000000020000000A00000000000000BA000000FF040000BC000000AA0000000200000024
:4012C0000C00000000000000BC000000FF040000BE000000A8000000020000000E00000000000000BE000000FF040000C0000000A600000002000000100000000000000074
:40130000C0000000FF040000C2000000A4000000020000001200000000000000C2000000FF040000C4000000A2000000020000001400000000000000C4000000FF04000068
:40134000C6000000A0000000020000001600000000000000C6000000FF040000C80000009E000000020000001800000000000000C8000000FF040000CA0000009C00000075
:40138000020000001A00000000000000CA000000FF040000CC0000009A000000020000001C00000000000000CC000000FF040000CE00000098000000020000001E0000006B
:4013C00000000000CE000000FF040000D000000096000000020000002000000000000000D0000000FF040000D200000094000000020000002200000000000000D200000065
:40140000FF040000D400000092000000020000002400000000000000D4000000FF040000D600000090000000020000002600000000000000D6000000FF040000D800000007
:401440008E000000020000002800000000000000D8000000FF040000DA0000008C000000020000002A00000000000000DA000000FF040000DC0000008A0000000200000002
:401480002C00000000000000DC000000FF040000DE00000088000000020000002E00000000000000DE000000FF040000E00000008600000002000000300000000000000012
:4014C000E0000000FF040000E200000084000000020000003200000000000000E2000000FF040000E400000082000000020000003400000000000000E4000000FF04000007
:40150000E600000080000000020000003600000000000000E6000000FF040000E80000007E000000020000003800000000000000E8000000FF040000EA0000007C00000033
:40154000020000003A00000000000000EA000000FF040000EC0000007A000000020000003C00000000000000EC000000FF040000EE00000078000000020000003E00000009
:4015800000000000EE000000FF040000F000000076000000020000004000000000000000F0000000FF040000F200000074000000020000004200000000000000F200000003
:4015C000FF040000F400000072000000020000004400000000000000F4000000FF040000F600000070000000020000004600000000000000F6000000FF040000F8000000A6
:401600006E000000020000004800000000000000F8000000FF040000FA0000006C000000020000004A00000000000000FA000000FF040000FC0000006A00000002000000E0
:401640004C00000000000000FC000000FF040000FE00000068000000020000004E00000000000000FE000000FF0400000001000066000000020000005000000000000000AF
:4016800000010000FF040000020100006400000002000000520000000000000002010000FF040000040100006200000002000000540000000000000004010000FF040000A0
:4016C000060100006000000002000000560000000000000006010000FF040000080100005E00000002000000580000000000000008010000FF0400000A0100005C000000ED
:40170000020000005A000000000000000A010000FF0400000C0100005A000000020000005C000000000000000C010000FF0400000E01000058000000020000005E000000A3
:40174000000000000E010000FF040000100100005600000002000000600000000000000010010000FF0400001201000054000000020000006200000000000000120100009C
:40178000FF040000140100005200000002000000640000000000000014010000FF040000160100005000000002000000660000000000000016010000FF040000180100003F
:4017C0004E00000002000000680000000000000018010000FF0400001A0100004C000000020000006A000000000000001A010000FF0400001C0100004A00000002000000BB
:401800006C000000000000001C010000FF0400001E01000048000000020000006E000000000000001E010000FF04000020010000460000000200000070000000000000004A
:4018400020010000FF040000220100004400000002000000720000000000000022010000FF040000240100004200000002000000740000000000000024010000FF0400003E
:40188000260100004000000002000000760000000000000026010000FF040000280100003E00000002000000780000000000000028010000FF0400002A0100003C000000AB
:4018C000020000007A000000000000002A010000FF0400002C0100003A000000020000007C000000000000002C010000FF0400002E01000038000000020000007E00000042
:40190000000000002E010000FF040000300100003600000002000000800000000000000030010000FF0400003201000034000000020000008200000000000000320100003A
:40194000FF040000340100003200000002000000840000000000000034010000FF040000360100003000000002000000860000000000000036010000FF04000038010000DD
:401980002E00000002000000880000000000000038010000FF0400003A0100002C000000020000008A000000000000003A010000FF0400003C0100002A0000000200000099
:4019C0008C000000000000003C010000FF0400003E01000028000000020000008E000000000000003E010000FF0400004001000026000000020000009000000000000000E9
:401A000040010000FF040000420100002400000002000000920000000000000042010000FF040000440100002200000002000000940000000000000044010000FF040000DC
:401A4000460100002000000002000000960000000000000046010000FF040000480100001E00000002000000980000000000000048010000FF0400004A0100001C00000069
:401A8000020000009A000000000000004A010000FF0400004C0100001A000000020000009C000000000000004C010000FF0400004E01000018000000020000009E000000E0
:401AC000000000004E010000FF040000500100001600000002000000A00000000000000050010000FF040000520100001400000002000000A20000000000000052010000D9
:401B0000FF040000540100001200000002000000A40000000000000054010000FF040000560100001000000002000000A60000000000000056010000FF040000580100007B
:401B40000E00000002000000A80000000000000058010000FF0400005A0100000C00000002000000AA000000000000005A010000FF0400005C0100000A0000000200000077
:401B8000AC000000000000005C010000FF0400005E0100000800000002000000AE000000000000005E010000FF040000600100000600000002000000B00000000000000087
:401BC00060010000FF040000620100000400000002000000B20000000000000062010000FF040000640100000200000002000000B40000000000000064010000FF0400007B
:401C0000660100000000000002000000B60000000000000066010000FF040000680100000000000004000000B40000000000000068010000FF0400006A0100000000000023
:401C400006000000B2000000000000006A010000FF0400006C0100000000000008000000B0000000000000006C010000FF0400006E010000000000000A000000AE00000082
:401C8000000000006E010000FF04000070010000000000000C000000AC0000000000000070010000FF04000072010000000000000E000000AA000000000000007201000077
:401CC000FF040000740100000000000010000000A80000000000000074010000FF040000760100000000000012000000A60000000000000076010000FF040000780100001A
:401D00000000000014000000A40000000000000078010000FF0400007A0100000000000016000000A2000000000000007A010000FF0400007C010000000000001800000029
:401D4000A0000000000000007C010000FF0400007E010000000000001A0000009E000000000000007E010000FF04000080010000000000001C0000009C0000000000000051
:401D800080010000FF04000082010000000000001E0000009A0000000000000082010000FF040000840100000000000020000000980000000000000084010000FF04000019
:401DC000860100000000000022000000960000000000000086010000FF040000880100000000000024000000940000000000000088010000FF0400008A01000000000000C2
:401E00002600000092000000000000008A010000FF0400008C010000000000002800000090000000000000008C010000FF0400008E010000000000002A0000008E00000040
:401E4000000000008E010000FF04000090010000000000002C0000008C0000000000000090010000FF04000092010000000000002E0000008A000000000000009201000015
:401E8000FF040000940100000000000030000000880000000000000094010000FF040000960100000000000032000000860000000000000096010000FF04000098010000B8
:401EC0000000000034000000840000000000000098010000FF0400009A010000000000003600000082000000000000009A010000FF0400009C0100000000000038000000C8
:401F000080000000000000009C010000FF0400009E010000000000003A0000007E000000000000009E010000FF040000A0010000000000003C0000007C000000000000002F
:401F4000A0010000FF040000A2010000000000003E0000007A00000000000000A2010000FF040000A401000000000000400000007800000000000000A4010000FF040000B7
:401F8000A601000000000000420000007600000000000000A6010000FF040000A801000000000000440000007400000000000000A8010000FF040000AA0100000000000060
:401FC000460000007200000000000000AA010000FF040000AC01000000000000480000007000000000000000AC010000FF040000AE010000000000004A0000006E000000FF
:4020000000000000AE010000FF040000B0010000000000004C0000006C00000000000000B0010000FF040000B2010000000000004E0000006A00000000000000B2010000B3
:40204000FF040000B401000000000000500000006800000000000000B4010000FF040000B601000000000000520000006600000000000000B6010000FF040000B801000056
:4020800000000000540000006400000000000000B8010000FF040000BA01000000000000560000006200000000000000BA010000FF040000BC010000000000005800000066
:4020C0006000000000000000BC010000FF040000BE010000000000005A0000005E00000000000000BE010000FF040000C0010000000000005C0000005C000000000000000E
:40210000C0010000FF040000C2010000000000005E0000005A00000000000000C2010000FF040000C401000000000000600000005800000000000000C4010000FF04000055
:40214000C601000000000000620000005600000000000000C6010000FF040000C801000000000000640000005400000000000000C8010000FF040000CA01000000000000FE
:40218000660000005200000000000000CA010000FF040000CC01000000000000680000005000000000000000CC010000FF040000CE010000000000006A0000004E000000BD
:4021C00000000000CE010000FF040000D0010000000000006C0000004C00000000000000D0010000FF040000D2010000000000006E0000004A00000000000000D201000052
:40220000FF040000D401000000000000700000004800000000000000D4010000FF040000D601000000000000720000004600000000000000D6010000FF040000D8010000F4
:4022400000000000740000004400000000000000D8010000FF040000DA01000000000000760000004200000000000000DA010000FF040000DC010000000000007800000004
:402280004000000000000000DC010000FF040000DE010000000000007A0000003E00000000000000DE010000FF040000E0010000000000007C0000003C00000000000000EC
:4022C000E0010000FF040000E2010000000000007E0000003A00000000000000E2010000FF040000E401000000000000800000003800000000000000E4010000FF040000F4
:40230000E601000000000000820000003600000000000000E6010000FF040000E801000000000000840000003400000000000000E8010000FF040000EA010000000000009C
:40234000860000003200000000000000EA010000FF040000EC01000000000000880000003000000000000000EC010000FF040000EE010000000000008A0000002E0000007B
:4023800000000000EE010000FF040000F0010000000000008C0000002C00000000000000F0010000FF040000F2010000000000008E0000002A00000000000000F2010000F0
:4023C000FF040000F401000000000000900000002800000000000000F4010000FF040000F601000000000000920000002600000000000000F6010000FF040000F801000093
:4024000000000000940000002400000000000000F8010000FF040000FA01000000000000960000002200000000000000FA010000FF040000FC0100000000000098000000A2
:402440002000000000000000FC010000FF040000FE010000000000009A0000001E00000000000000FE010000FF04000000020000000000009C0000001C00000000000000C9
:4024800000020000FF04000002020000000000009E0000001A0000000000000002020000FF0400000402000000000000A0000000180000000000000004020000FF0400008D
:4024C0000602000000000000A2000000160000000000000006020000FF0400000802000000000000A4000000140000000000000008020000FF0400000A0200000000000036
:40250000A600000012000000000000000A020000FF0400000C02000000000000A800000010000000000000000C020000FF0400000E02000000000000AA0000000E00000035
:40254000000000000E020000FF0400001002000000000000AC0000000C0000000000000010020000FF0400001202000000000000AE0000000A000000000000001202000089
:40258000FF0400001402000000000000B0000000080000000000000014020000FF0400001602000000000000B2000000060000000000000016020000FF040000180200002C
:4025C00000000000B4000000040000000000000018020000FF0400001A02000000000000B600000002000000000000001A020000FF0400001C02000000000000B400000041
:4026000002000000000000001C020000FF0400001E02000000000000B200000002000000000000001E020000FF0400002002000000000000B00000000200000000000000AC
:4026400020020000FF0400002202000000000000AE000000020000000000000022020000FF0400002402000000000000AC000000020000000000000024020000FF0400003D
:402680002602000000000000AA000000020000000000000026020000FF0400002802000000000000A8000000020000000000000028020000FF0400002A02000000000000EE
:4026C000A600000002000000000000002A020000FF0400002C02000000000000A400000002000000000000002C020000FF0400002E02000000000000A2000000020000002A
:40270000000000002E020000FF0400003002000000000000A0000000020000000000000030020000FF04000032020000000000009E00000002000000000000003202000055
:40274000FF04000034020000000000009C000000020000000000000034020000FF04000036020000000000009A000000020000000000000036020000FF0400003802000000
:402780000000000098000000020000000000000038020000FF0400003A020000000000009600000002000000000000003A020000FF0400003C02000000000000940000005D
:4027C00002000000000000003C020000FF0400003E020000000000009200000002000000000000003E020000FF0400004002000000000000900000000200000000000000AB
:4028000040020000FF04000042020000000000008E000000020000000000000042020000FF04000044020000000000008C000000020000000000000044020000FF0400001B
:4028400046020000000000008A000000020000000000000046020000FF040000480200000000000088000000020000000000000048020000FF0400004A02000000000000CC
:402880008600000002000000000000004A020000FF0400004C020000000000008400000002000000000000004C020000FF0400004E02000000000000820000000200000048
:4028C000000000004E020000FF040000500200000000000080000000020000000000000050020000FF04000052020000000000007E00000002000000000000005202000034
:40290000FF04000054020000000000007C000000020000000000000054020000FF04000056020000000000007A000000020000000000000056020000FF04000058020000DE
:402940000000000078000000020000000000000058020000FF0400005A020000000000007600000002000000000000005A020000FF0400005C02000000000000740000007B
:4029800002000000000000005C020000FF0400005E020000000000007200000002000000000000005E020000FF0400006002000000000000700000000200000000000000A9
:4029C00060020000FF04000062020000000000006E000000020000000000000062020000FF04000064020000000000006C000000020000000000000064020000FF040000FA
:402A000066020000000000006A000000020000000000000066020000FF040000680200000000000068000000020000000000000068020000FF0400006A02000000000000AA
:402A40006600000002000000000000006A020000FF0400006C020000000000006400000002000000000000006C020000FF0400006E02000000000000620000000200000066
:402A8000000000006E020000FF040000700200000000000060000000020000000000000070020000FF04000072020000000000005E00000002000000000000007202000012
:402AC000FF04000074020000000000005C000000020000000000000074020000FF04000076020000000000005A000000020000000000000076020000FF04000078020000BD
:402B00000000000058000000020000000000000078020000FF0400007A020000000000005600000002000000000000007A020000FF0400007C020000000000005400000099
:402B400002000000000000007C020000FF0400007E020000000000005200000002000000000000007E020000FF0400008002000000000000500000000200000000000000A7
:402B800080020000FF04000082020000000000004E000000020000000000000082020000FF04000084020000000000004C000000020000000000000084020000FF040000D8
:402BC00086020000000000004A000000020000000000000086020000FF040000880200000000000048000000020000000000000088020000FF0400008A0200000000000089
:402C00004600000002000000000000008A020000FF0400008C020000000000004400000002000000000000008C020000FF0400008E02000000000000420000000200000084
:402C4000000000008E020000FF040000900200000000000040000000020000000000000090020000FF04000092020000000000003E000000020000000000000092020000F0
:402C8000FF04000094020000000000003C000000020000000000000094020000FF04000096020000000000003A000000020000000000000096020000FF040000980200009B
:402CC0000000000038000000020000000000000098020000FF0400009A020000000000003600000002000000000000009A020000FF0400009C0200000000000034000000B8
:402D000002000000000000009C020000FF0400009E020000000000003200000002000000000000009E020000FF040000A002000000000000300000000200000000000000A5
:402D4000A0020000FF040000A2020000000000002E0000000200000000000000A2020000FF040000A4020000000000002C0000000200000000000000A4020000FF040000B6
:402D8000A6020000000000002A0000000200000000000000A6020000FF040000A802000000000000280000000200000000000000A8020000FF040000AA0200000000000067
:402DC000260000000200000000000000AA020000FF040000AC02000000000000240000000200000000000000AC020000FF040000AE020000000000002200000002000000A3
:402E000000000000AE020000FF040000B002000000000000200000000200000000000000B0020000FF040000B2020000000000001E0000000200000000000000B2020000CE
:402E4000FF040000B4020000000000001C0000000200000000000000B4020000FF040000B6020000000000001A0000000200000000000000B6020000FF040000B802000079
:402E800000000000180000000200000000000000B8020000FF040000BA02000000000000160000000200000000000000BA020000FF040000BC0200000000000014000000D6
:402EC0000200000000000000BC020000FF040000BE02000000000000120000000200000000000000BE020000FF040000C002000000000000100000000200000000000000A4
:402F0000C0020000FF040000C2020000000000000E0000000200000000000000C2020000FF040000C4020000000000000C0000000200000000000000C4020000FF04000094
:402F4000C6020000000000000A0000000200000000000000C6020000FF040000C802000000000000080000000200000000000000C8020000FF040000CA0200000000000045
:402F8000060000000200000000000000CA020000FF040000CC02000000000000040000000200000000000000CC020000FF040000CE020000000000000200000002000000C1
:402FC00000000000CE020000FF040000D00200000000000000000000020000000000E02EC05D00001800000000366E01000000000000000000000000000000000000000042
:403000000000000000000000000000004008000000000000000000000000000000000000000000000000000000000000000000000000000000000000000000000000000048
:403040000000000000000000000000003CA8FF1F0000000000000000000000000000000000000000000000000000000000000000000000000000000000000000000000004E
:403080000000000000000000000000000000000000000000000000000000000000000000000000000000000000000000000000000000000000000000000000000000000010
:4030C00000000000000000000000000000000000000000000000000000000000000000000000000000000000000000000000000000000000000000000000000000000000D0
:40310000000000000000000000000000000000000000000000000000000000000000000000000000000000000000000000000000000000000000000000000000000000008F
:40314000000000000000000000000000000000000000000000000000000000000000000000000000000000000000000000000000000000000000000000000000000000004F
:020000040003F7
:0200000480007A
:40000000025200400202014009030140040501401141014005420140003601AC5B045F016C026F9474087749838087088F44E210E610AB10B301B40AEE705208530154020A
:4000400056805B04632064016710830187108E808F10D4E0D6E0D8C0E210E620A802B001B608B704EA20000000FFFF00FF000000010100000000000020000020000000000D
:4000800000000000000B0B0000000000007F7F00000000000020200000000000000101000000000002000002000000000000000000000000000000000000000000000000E6
:4000C0000000000000000000000000000000000000000000000000000000000000000000000000000000000000000000000000000000000000000000000000000000000000
:4001000000000000000000000000000000000000000000000000000000000000000000000000000000000000000000000000000000000000000000000000000000000000BF
:40014000000000000000000000000000000000000000000000000000000000000000000000000000000000000000000000000000000000000000000000000000000000007F
:40018000000000000000000000000000000000000000000000000000000000000000000000000000000000000000000000000000000000000000000000000000000000003F
:0200000490006A
:0400000000004005B7
:0200000490105A
:04000000BC90ACAF55
:0200000490303A
:02000000CF2B04
:0200000490402A
:4000000000000000000000000000000000000000000000000000000000000000000000000000000000000000000000000000000000000000000000000000000000000000C0
:400040000000000000000000000000000000000000000000000000000000000000000000000000000000000000000000000000000000000000000000000000000000000080
:400080000000000000000000000000000000000000000000000000000000000000000000000000000000000000000000000000000000000000000000000000000000000040
:4000C0000000000000000000000000000000000000000000000000000000000000000000000000000000000000000000000000000000000000000000000000000000000000
:0200000490501A
:0C00000000012E12306900012E18FF9440
:00000001FF