:400000000080002011000000DD070000DD070000034A08B51268034B1A6000F0E7FB00BFFA460040BC76004010B5054C237833B9044B13B10448AFF300800123237010BDD6
:40004000A0A9FF1F00000000980E0000084B10B51BB108490848AFF300800848036803B910BD074B002BFBD0BDE81040184700BF00000000A4A9FF1F980E0000C880FF1FB6
:4000800000000000426903692DE9F0411B04D0F804E01502047EC7680168ADB203F47F03234E82684FEACE2E45EA0300214B204D20430EEA0606FF02C1F30A0131433D405B
:4000C0000612C2F30A02DC692A431E73051402264FEA21284FEA214C4FEA222E1714D8725D7359709A710325002204200121B44283F8028083F803C083F807E01F729E7215
:40010000DD7318751A701A715A729A73597108D90022032C08BF59759A75DA751A76BDE8F0815A7500229A75DA751A76BDE8F08100F83F00BCA9FF1F2DE9F04F8DB062B606
:400140000026AC4DAC4C039600F0FCFD012000F049FC64202E60266000F0A6FB012000F04BFE4FF4967000F09FFB304600F044FE642000F099FB287800F02CFE9F4B02964E
:4001800003F11D0A9D4B0196DB692746DFF878B2002B40F0AB80019B9948C3EBC303591C50F821009649964E9A1C51F82210DA1C56F8222006900791181D591D08929A1DFA
:4001C00056F8233056F8200056F8211056F822200593022309900A910B92029305A8FFF751FF864BDB69022B00F0E480012B40F2AC80032B00F0A980DFF81092C846A8F144
:40020000050616F8010F00F0F1FD2B68C3F10103D8B22B6000F0DEFD00F0D4FD23689842FAD0C3F1010346453B60EAD106F10508C245E4D1019B029A93424AD100F0BAFD74
:400240000028FBD1642000F02FFB6C4BDA696D4B01321340002B694AC0F22C81D361DBF85416DBF85826DBF85C36DBF8500606910792DBF86016DBF864260893DBF8683645
:40028000059005A809910A920B93FFF7FBFEDFF87C81A8F1050616F8010F00F0A7FD2B68C3F10103D8B22B6000F094FD00F08AFD23689842FAD0C3F1010346453B60EAD1EF
:4002C00006F10508C245E4D1642000F0EDFA0023019300F06FFD002800F09A80C82000F007FB464BDB69002B3FF455AF012B00F0E680022B2DD0032B7FF470AF019BC3EBD7
:40030000C3030BEB83010A460BEB8300D0F83C06D1F83416D2F8382607900BEB8300059106920BEB83010BEB83020346D3F84C36D1F84016D2F84426D0F848060B9301237B
:40034000089109920A90029348E7019B0133019352E7019B2A4AC3EBC30302EB8301284AD1F8C400D1F8C81002EB8302D2F8CC2006912349059001EB830121480792204A1D
:40038000D1F8D41000EB830002EB8302D2F8D820D0F8D000099103990A920890184A002940F0B280D1230B910A9109934FF4B473029313E740F26713019999426DD02D298B
:4003C0006BD05A2969D0872967D0B42965D0E12963D0B1F5877F60D040F23B1399425CD0019B0299013393FBF1F201FB1233019302E700BFE8A9FF1FFCA9FF1FBCA9FF1F1F
:40040000CC80FF1F03000080BCA2FF1FC0A9FF1F642000F049FADBF85036DBF854260593DBF8583606920793DBF85C26DBF8603608920993DBF86426DBF8683605A80A9239
:400440000B93FFF71FFEA9F1050616F8010F00F0CDFC2B68C3F10103D8B22B6000F0BAFC00F0B0FC23689842FAD0C3F101034E453B60EAD106F10509CA45E4D14C4BDA693A
:400480004C4B01321340002B494A46DB6420D36100F00AFA0023019320E7039B464A013382FB0321DA17C2EB610202EBC2029B1A039395E7013B63F003030133CEE6019B41
:4004C0003E4AC3EBC30302EB83010A463B48496D00EB8300C06D926D07903848059106923649364A00EB830001EB830102EB83020346DB6E096E526E806E0B9304230891C3
:4005000009920A90029369E601290BD166212222FF230B910A92099348E7013B63F003030133B3E7022906D1DA212122FF230B910A9209933AE702EB8303D3F8DC300B930A
:40054000039B032B06D1DD21002233230B910A9209932BE7042B09D13321CC22112309934FF4B4730B910A92029337E6052B03D1002166222223F2E7062B03D100214422B6
:400580003323ECE7072B08D1992300220A9309934FF4B4730B92029320E6082B7FF406AFFF230B930A9309934FF4B473029315E6BCA9FF1F03000080398EE338CC80FF1FAE
:4005C000F8B572B66B4E6C4A35461378002443F00403137004EB4403AA8856F813000134002100F051FC062C05F10605F2D1634E634F002556F8043F13F0FF0E23F0FF043F
:4006000013D005F110530EF1FF3E03F10D005FFA8EFE70440C3340005B001A785978023383421155F9D101357544BE42E2D15549554A0B78554843F002030B70137841F2D1
:40064000512543F0020313700278A1F5863142F04002027041390A784D4C42F010024D4B0A704D4A03CB2060616003CBEE341060516093E8070003C40C332280474A03CB71
:40068000474E44F8E60C44F8E21C03CB1060516003CB3060716003CB983C1062516293E8070003C43F4922800B783F483F4A43F008034FF0610E0B70A6F6326680F800E05F
:4006C0004FF0402408210320394B02273770217010701A783748384BD2B286F8A123A4F8221205801C784FF4F0701D4604F0010400F08EFB182601E0032C0DD02B784FF4DA
:40070000F07003F0010343EA440400F081FB013E04F00304F0D1FEE7284B294F29484FF4807207251A80284E1D7000221E4C274948253A70057002271A7081250120244BD6
:400740003770257008701B782248DBB2A1F5F421A1F2957103F007071F4D1B090B4A0770A4F58A640B7044260FCA2E7007C42380F8BD00BF9C0E0000E8460040FCFFFF477C
:40078000140000480350014013500140A04300400251004068000048C2510040225100403251004022430040004800400042004008010049204200402542004004400040A8
:4007C00006400040084000400140004004000840CF0100496E5800407658004008B500F027FB03680C2B00D0FEE7FEE780B5134FF7B1134E002556F80C0C56F8084C56F8CB
:40080000102C03463CB1043A52F8041F43F8041B191AA142F8D156F8040C1A4620B142F8045BD11A8842FAD1013F06F11006E2D100F004FBFFF780FCFEE700BF01000000B4
:40084000F80E00000E4B0F4A0F491A600B680F4A43F400730E480B600023032B94BF50F823100C490133302B42F8041FF5D10A4B0A4918780A4A0B4B08701A60FFF7A0BE69
:400880000CED00E00004FA0514ED00E0FC7FFF1F00000000DD070000BC760040C080FF1F0080FF1F08ED00E0B0F5004F70B506461AD904460D4DA4F50044686800F0A8FA80
:4008C000B4F5004FF7D8A6F50043013B23F4FF4323F07F03A6F50046F61AA86800FB06F0BDE8704000F094BA004DF6E728A9FF1F024B1B7800FB03F000F08ABA28A9FF1F9A
:40090000F8B5334B334D1A78334802F08002D2B21A702A78314902F0F00242F00F022A7002781C4602F0F00202700A782C4F02F0F0020A701A784FF4CA7602F0DF021A70A1
:400940001A7842F040021A7001E0013E22D00020FFF7CEFF2378012043F010032370FFF7C7FF3D782378002003F0EF032370FFF7BFFF2378012043F010032370FFF7B8FFC3
:400980002378EDB203F0EF0323702B07DDD40A20FFF7AEFF0E4A0F4C13780F4803F0BF03137013780D4903F08003DBB21370237803F0F0032370037803F0F00343F00F03E7
:4009C00003700B7803F0F00343F00F030B70F8BD205100402251004023510040245100402151004038B50546174CFFF789FF2378012003F09F032370237803F0F003237016
:400A0000227842F0100242EA15122270FFF770FF237805F00F0503F0EF0323702378012003F09F032370237803F0F0032370237843F010032B432370FFF75AFF237803F0BB
:400A4000EF03237038BD00BF2051004010B5BC4C2820FFF729FF2378012003F09F032370237803F0F0032370237843F013032370FFF73EFF2378052003F0EF032370FFF789
:400A800013FF2378012003F09F032370237803F0F0032370237843F013032370FFF728FF23780F2003F0EF032370FFF7FDFE2378012003F09F032370237803F0F00323706D
:400AC000237843F013032370FFF712FF2378012003F0EF032370FFF7E7FE2378012003F09F032370237803F0F0032370237843F012032370FFF7FCFE2378052003F0EF0366
:400B00002370FFF7D1FEFFF7FBFE2378012003F09F032370237803F0F0032370237843F010032370FFF7E4FE2378012003F0EF032370237803F09F032370237803F0F003B2
:400B40002370237843F016032370FFF7D1FE237803F0EF032370FFF7D3FE2378012003F09F032370237803F0F0032370237843F010032370FFF7BCFE2378012003F0EF030C
:400B80002370237803F09F032370237803F0F0032370237843F01E032370FFF7A9FE237803F0EF032370FFF7ABFE2378012003F09F032370237803F0F0032370237843F034
:400BC00012032370FFF794FE2378012003F0EF032370237803F09F032370237803F0F0032370237843F01C032370FFF781FE237803F0EF032370FFF783FE2378012003F08C
:400C00009F032370237803F0F0032370237843F010032370FFF76CFE2378012003F0EF032370237803F09F032370237803F0F0032370237843F018032370FFF759FE237828
:400C400003F0EF032370FFF75BFE2378012003F09F032370237803F0F0032370237843F010032370FFF744FE2378012003F0EF032370237803F09F032370237803F0F00391
:400C80002370237843F011032370FFF731FE237803F0EF032370FFF733FE2378012003F09F032370237803F0F0032370237843F010032370FFF71CFE2378012003F0EF03B0
:400CC0002370237803F09F032370237803F0F0032370237843F01C032370FFF709FE237803F0EF032370FFF70BFE2378012003F09F032370237803F0F0032370237843F035
:400D000010032370FFF7F4FD2378012003F0EF032370237803F09F032370237803F0F0032370237843F013032370FFF7E1FD2378052003F0EF032370BDE81040FFF7B4BD3C
:400D40002051004038B5194D6B781BB9FFF77EFE01236B70164CFFF7D3FD2378012003F09F032370237803F0F0032370237843F010032370FFF7BCFD2378012003F0EF0363
:400D80002370237803F09F032370237803F0F0032370237843F01C032370FFF7A9FD2378012203F0EF0323702A7038BDE4A9FF1F20510040024B1878C0F34000704700BF46
:400DC00061510040024B187800F00100704700BFC1510040044A4001137800F0200003F0DF0318431070704730510040014B1870704700BF72640040044A00F001001378EF
:400E000003F0FE0318431070704700BF405100400230800803D000BF01380046FCD17047EFF3108072B6704780F31088704700BF014B1868704700BF98A9FF1F0E4B70B55C
:400E40001E460E4C0025E41AA410A54204D056F8253098470135F8E700F034F8084B094C1E46E41AA4100025A54204D056F8253098470135F8E770BDD00E0000D00E000051
:400E8000D00E0000D80E000003460244934202D003F8011BFAE770470000000050510040100000000140001000140140000800400140000A004C014000020050014020001F
:400EC00043000000F8B500BFF8BC08BC9E4670474D00000045080000F8B500BFF8BC08BC9E46704729000000F80E0000C880FF1FD828000068000000000000002C010000ED
:400F00002C01000090010000900100000000000000000000FF0000006400000064000000C8000000C800000000000000FF000000000000000000000000000000FF04000009
:400F4000CF020000FF000000000000000000000064000000640000006400000064000000FF0000000000000000000000C8000000C8000000C8000000C8000000FF000000F3
:400F800000000000000000002C0100002C0100002C0100002C010000FF000000000000000000000090010000900100009001000090010000FF00000000000000000000003B
:400FC0009C03000058010000BC030000780100001F0000000F000000FF0000009C0300005D010000BC0300007D0100001F0000000F000000FF0000009C030000620100002B
:40100000BC030000820100001F0000000F000000FF0000009C03000068010000BC030000880100001F0000000F000000FF0000009B0300006D010000BB0300008D0100006C
:401040001F0000000F000000FF0000009B03000072010000BB030000920100001F0000000F000000FF0000009A03000077010000BA030000970100001F0000000F0000001C
:40108000FF0000009A0300007D010000BA0300009D0100001F0000000F000000FF0000009903000082010000B9030000A20100001F0000000F000000FF0000009803000048
:4010C00087010000B8030000A70100001F0000000F000000FF000000970300008C010000B7030000AC0100001F0000000F000000FF0000009603000091010000B603000039
:40110000B10100001F0000000F000000FF0000009503000096010000B5030000B60100001F0000000F000000FF000000940300009B010000B4030000BB0100001F00000040
:401140000F000000FF00000093030000A1010000B3030000C10100001F0000000F000000FF00000092030000A6010000B2030000C60100001F0000000F000000FF0000009F
:4011800090030000AB010000B0030000CB0100001F0000000F000000FF0000008F030000B0010000AF030000D00100001F0000000F000000FF0000008D030000B50100000B
:4011C000AD030000D50100001F0000000F000000FF0000008C030000BA010000AC030000DA0100001F0000000F000000FF0000008A030000BF010000AA030000DF01000061
:401200001F0000000F000000FF00000088030000C4010000A8030000E40100001F0000000F000000FF00000086030000C8010000A6030000E80100001F0000000F00000062
:40124000FF00000084030000CD010000A4030000ED0100001F0000000F000000FF00000082030000D2010000A2030000F20100001F0000000F000000FF00000080030000B8
:40128000D7010000A0030000F70100001F0000000F000000FF0000007E030000DC0100009E030000FC0100001F0000000F000000FF0000007B030000E00100009B03000068
:4012C000000200001F0000000F000000FF00000079030000E501000099030000050200001F0000000F000000FF00000076030000E901000096030000090200001F00000067
:401300000F000000FF00000074030000EE010000940300000E0200001F0000000F000000FF00000071030000F301000091030000130200001F0000000F000000FF00000027
:401340006E030000F70100008E030000170200001F0000000F000000FF0000006C030000FB0100008C0300001B0200001F0000000F000000FF00000069030000000200007B
:4013800089030000200200001F0000000F000000FF000000660300000402000086030000240200001F0000000F000000FF00000063030000080200008303000028020000E7
:4013C0001F0000000F000000FF000000600300000D020000800300002D0200001F0000000F000000FF0000005C030000110200007C030000310200001F0000000F0000001D
:40140000FF000000590300001502000079030000350200001F0000000F000000FF000000560300001902000076030000390200001F0000000F000000FF00000052030000B0
:401440001D020000720300003D0200001F0000000F000000FF0000004F030000210200006F030000410200001F0000000F000000FF0000004B030000250200006B03000032
:40148000450200001F0000000F000000FF000000480300002802000068030000480200001F0000000F000000FF000000440300002C020000640300004C0200001F00000018
:4014C0000F000000FF000000400300003002000060030000500200001F0000000F000000FF0000003D030000330200005D030000530200001F0000000F000000FF00000030
:40150000390300003702000059030000570200001F0000000F000000FF000000350300003A020000550300005A0200001F0000000F000000FF000000310300003E0200008B
:40154000510300005E0200001F0000000F000000FF0000002D030000410200004D030000610200001F0000000F000000FF0000002903000044020000490300006402000013
:401580001F0000000F000000FF000000250300004802000045030000680200001F0000000F000000FF000000200300004B020000400300006B0200001F0000000F0000005F
:4015C000FF0000001C0300004E0200003C0300006E0200001F0000000F000000FF000000180300005102000038030000710200001F0000000F000000FF0000001303000042
:401600005402000033030000740200001F0000000F000000FF0000000F030000560200002F030000760200001F0000000F000000FF0000000B030000590200002B030000A3
:40164000790200001F0000000F000000FF000000060300005C020000260300007C0200001F0000000F000000FF000000010300005E020000210300007E0200001F00000060
:401680000F000000FF000000FD020000610200001D030000810200001F0000000F000000FF000000F80200006302000018030000830200001F0000000F000000FF000000BE
:4016C000F40200006602000014030000860200001F0000000F000000FF000000EF020000680200000F030000880200001F0000000F000000FF000000EA0200006A02000044
:401700000A0300008A0200001F0000000F000000FF000000E50200006C020000050300008C0200001F0000000F000000FF000000E00200006E020000000300008E020000E6
:401740001F0000000F000000FF000000DC02000070020000FC020000900200001F0000000F000000FF000000D702000072020000F7020000920200001F0000000F00000027
:40178000FF000000D202000074020000F2020000940200001F0000000F000000FF000000CD02000075020000ED020000950200001F0000000F000000FF000000C802000066
:4017C00077020000E8020000970200001F0000000F000000FF000000C302000078020000E3020000980200001F0000000F000000FF000000BE0200007A020000DE020000B9
:401800009A0200001F0000000F000000FF000000B90200007B020000D90200009B0200001F0000000F000000FF000000B30200007C020000D30200009C0200001F0000003D
:401840000F000000FF000000AE0200007D020000CE0200009D0200001F0000000F000000FF000000A90200007E020000C90200009E0200001F0000000F000000FF000000CC
:40188000A40200007F020000C40200009F0200001F0000000F000000FF0000009F02000080020000BF020000A00200001F0000000F000000FF0000009A020000810200009B
:4018C000BA020000A10200001F0000000F000000FF0000009502000082020000B5020000A20200001F0000000F000000FF0000008F02000082020000AF020000A20200004F
:401900001F0000000F000000FF0000008A02000083020000AA020000A30200001F0000000F000000FF0000008502000083020000A5020000A30200001F0000000F00000065
:40194000FF0000008002000084020000A0020000A40200001F0000000F000000FF0000007A020000840200009A020000A40200001F0000000F000000FF0000007502000003
:401980008402000095020000A40200001F0000000F000000FF000000700200008402000090020000A40200001F0000000F000000FF0000006B020000840200008B0200005A
:4019C000A40200001F0000000F000000FF000000660200008402000086020000A40200001F0000000F000000FF000000600200008402000080020000A40200001F0000009C
:401A00000F000000FF0000005B020000830200007B020000A30200001F0000000F000000FF000000560200008302000076020000A30200001F0000000F000000FF00000040
:401A4000510200008202000071020000A20200001F0000000F000000FF0000004B020000820200006B020000A20200001F0000000F000000FF000000460200008102000071
:401A800066020000A10200001F0000000F000000FF000000410200008002000061020000A00200001F0000000F000000FF0000003C0200007F0200005C0200009F02000039
:401AC0001F0000000F000000FF000000370200007E020000570200009E0200001F0000000F000000FF000000320200007D020000520200009D0200001F0000000F00000006
:401B0000FF0000002D0200007C0200004D0200009C0200001F0000000F000000FF000000270200007B020000470200009B0200001F0000000F000000FF0000002202000002
:401B40007A020000420200009A0200001F0000000F000000FF0000001D020000780200003D020000980200001F0000000F000000FF00000018020000770200003802000070
:401B8000970200001F0000000F000000FF000000130200007502000033020000950200001F0000000F000000FF0000000E020000740200002E020000940200001F0000006F
:401BC0000F000000FF000000090200007202000029020000920200001F0000000F000000FF000000040200007002000024020000900200001F0000000F000000FF0000000F
:401C0000000200006E020000200200008E0200001F0000000F000000FF000000FB0100006C0200001B0200008C0200001F0000000F000000FF000000F60100006A020000AE
:401C4000160200008A0200001F0000000F000000FF000000F10100006802000011020000880200001F0000000F000000FF000000EC010000660200000C0200008602000082
:401C80001F0000000F000000FF000000E80100006302000008020000830200001F0000000F000000FF000000E30100006102000003020000810200001F0000000F000000F0
:401CC000FF000000DF0100005E020000FF0100007E0200001F0000000F000000FF000000DA0100005C020000FA0100007C0200001F0000000F000000FF000000D501000043
:401D000059020000F5010000790200001F0000000F000000FF000000D101000056020000F1010000760200001F0000000F000000FF000000CD01000054020000ED010000D7
:401D4000740200001F0000000F000000FF000000C801000051020000E8010000710200001F0000000F000000FF000000C40100004E020000E40100006E0200001F00000092
:401D80000F000000FF000000C00100004B020000E00100006B0200001F0000000F000000FF000000BB01000048020000DB010000680200001F0000000F000000FF00000013
:401DC000B701000044020000D7010000640200001F0000000F000000FF000000B301000041020000D3010000610200001F0000000F000000FF000000AF0100003E0200002F
:401E0000CF0100005E0200001F0000000F000000FF000000AB0100003A020000CB0100005A0200001F0000000F000000FF000000A701000037020000C70100005702000006
:401E40001F0000000F000000FF000000A301000033020000C3010000530200001F0000000F000000FF000000A001000030020000C0010000500200001F0000000F00000002
:401E8000FF0000009C0100002C020000BC0100004C0200001F0000000F000000FF0000009801000028020000B8010000480200001F0000000F000000FF0000009501000097
:401EC00025020000B5010000450200001F0000000F000000FF0000009101000021020000B1010000410200001F0000000F000000FF0000008E0100001D020000AE0100005D
:401F00003D0200001F0000000F000000FF0000008A01000019020000AA010000390200001F0000000F000000FF0000008701000015020000A7010000350200001F000000DF
:401F40000F000000FF0000008401000011020000A4010000310200001F0000000F000000FF000000800100000D020000A00100002D0200001F0000000F000000FF00000029
:401F80007D010000080200009D010000280200001F0000000F000000FF0000007A010000040200009A010000240200001F0000000F000000FF0000007701000000020000BB
:401FC00097010000200200001F0000000F000000FF00000074010000FB010000940100001B0200001F0000000F000000FF00000072010000F7010000920100001702000093
:402000001F0000000F000000FF0000006F010000F30100008F010000130200001F0000000F000000FF0000006C010000EE0100008C0100000E0200001F0000000F00000016
:40204000FF0000006A010000E90100008A010000090200001F0000000F000000FF00000067010000E501000087010000050200001F0000000F000000FF00000065010000D9
:40208000E001000085010000000200001F0000000F000000FF00000062010000DC01000082010000FC0100001F0000000F000000FF00000060010000D701000080010000E3
:4020C000F70100001F0000000F000000FF0000005E010000D20100007E010000F20100001F0000000F000000FF0000005C010000CD0100007C010000ED0100001F00000035
:402100000F000000FF0000005A010000C80100007A010000E80100001F0000000F000000FF00000058010000C401000078010000E40100001F0000000F000000FF00000033
:4021400056010000BF01000076010000DF0100001F0000000F000000FF00000054010000BA01000074010000DA0100001F0000000F000000FF00000053010000B50100002D
:4021800073010000D50100001F0000000F000000FF00000051010000B001000071010000D00100001F0000000F000000FF00000050010000AB01000070010000CB010000FB
:4021C0001F0000000F000000FF0000004E010000A60100006E010000C60100001F0000000F000000FF0000004D010000A10100006D010000C10100001F0000000F0000000B
:40220000FF0000004C0100009B0100006C010000BB0100001F0000000F000000FF0000004B010000960100006B010000B60100001F0000000F000000FF0000004A010000E2
:40224000910100006A010000B10100001F0000000F000000FF000000490100008C01000069010000AC0100001F0000000F000000FF0000004801000087010000680100002D
:40228000A70100001F0000000F000000FF000000470100008201000067010000A20100001F0000000F000000FF000000460100007D010000660100009D0100001F0000005D
:4022C0000F000000FF000000460100007701000066010000970100001F0000000F000000FF000000450100007201000065010000920100001F0000000F000000FF00000006
:40230000450100006D010000650100008D0100001F0000000F000000FF000000440100006801000064010000880100001F0000000F000000FF000000440100006201000057
:4023400064010000820100001F0000000F000000FF000000440100005D010000640100007D0100001F0000000F000000FF0000004401000058010000640100007801000019
:402380001F0000000F000000FF000000440100005301000064010000730100001F0000000F000000FF000000440100004E010000640100006E0100001F0000000F000000BB
:4023C000FF000000440100004801000064010000680100001F0000000F000000FF000000450100004301000065010000630100001F0000000F000000FF000000450100008E
:402400003E010000650100005E0100001F0000000F000000FF000000460100003901000066010000590100001F0000000F000000FF0000004601000033010000660100001A
:40244000530100001F0000000F000000FF000000470100002E010000670100004E0100001F0000000F000000FF000000480100002901000068010000490100001F0000003B
:402480000F000000FF000000490100002401000069010000440100001F0000000F000000FF0000004A0100001F0100006A0100003F0100001F0000000F000000FF00000080
:4024C0004B0100001A0100006B0100003A0100001F0000000F000000FF0000004C010000150100006C010000350100001F0000000F000000FF0000004D0100000F01000010
:402500006D0100002F0100001F0000000F000000FF0000004E0100000A0100006E0100002A0100001F0000000F000000FF00000050010000050100007001000025010000C1
:402540001F0000000F000000FF000000510100000001000071010000200100001F0000000F000000FF00000053010000FB000000730100001B0100001F0000000F0000000E
:40258000FF00000054010000F600000074010000160100001F0000000F000000FF00000056010000F100000076010000110100001F0000000F000000FF00000058010000C1
:4025C000EC000000780100000C0100001F0000000F000000FF0000005A010000E80000007A010000080100001F0000000F000000FF0000005C010000E30000007C0100008B
:40260000030100001F0000000F000000FF0000005E010000DE0000007E010000FE0000001F0000000F000000FF00000060010000D900000080010000F90000001F000000AF
:402640000F000000FF00000062010000D400000082010000F40000001F0000000F000000FF00000065010000D000000085010000F00000001F0000000F000000FF00000098
:4026800067010000CB00000087010000EB0000001F0000000F000000FF0000006A010000C70000008A010000E70000001F0000000F000000FF0000006C010000C200000047
:4026C0008C010000E20000001F0000000F000000FF0000006F010000BD0000008F010000DD0000001F0000000F000000FF00000072010000B900000092010000D9000000DF
:402700001F0000000F000000FF00000074010000B500000094010000D50000001F0000000F000000FF00000077010000B000000097010000D00000001F0000000F000000ED
:40274000FF0000007A010000AC0000009A010000CC0000001F0000000F000000FF0000007D010000A80000009D010000C80000001F0000000F000000FF0000008001000065
:40278000A3000000A0010000C30000001F0000000F000000FF000000840100009F000000A4010000BF0000001F0000000F000000FF000000870100009B000000A701000065
:4027C000BB0000001F0000000F000000FF0000008A01000097000000AA010000B70000001F0000000F000000FF0000008E01000093000000AE010000B30000001F0000009D
:402800000F000000FF000000910100008F000000B1010000AF0000001F0000000F000000FF000000950100008B000000B5010000AB0000001F0000000F000000FF0000002C
:402840009801000088000000B8010000A80000001F0000000F000000FF0000009C01000084000000BC010000A40000001F0000000F000000FF000000A001000080000000D9
:40288000C0010000A00000001F0000000F000000FF000000A30100007D000000C30100009D0000001F0000000F000000FF000000A701000079000000C70100009900000059
:4028C0001F0000000F000000FF000000AB01000076000000CB010000960000001F0000000F000000FF000000AF01000072000000CF010000920000001F0000000F00000048
:40290000FF000000B30100006F000000D30100008F0000001F0000000F000000FF000000B70100006C000000D70100008C0000001F0000000F000000FF000000BB01000074
:4029400068000000DB010000880000001F0000000F000000FF000000C001000065000000E0010000850000001F0000000F000000FF000000C401000062000000E401000099
:40298000820000001F0000000F000000FF000000C80100005F000000E80100007F0000001F0000000F000000FF000000CD0100005C000000ED0100007C0000001F000000F8
:4029C0000F000000FF000000D10100005A000000F10100007A0000001F0000000F000000FF000000D501000057000000F5010000770000001F0000000F000000FF0000003D
:402A0000DA01000054000000FA010000740000001F0000000F000000FF000000DF01000052000000FF010000720000001F0000000F000000FF000000E30100004F000000C7
:402A4000030200006F0000001F0000000F000000FF000000E80100004D000000080200006D0000001F0000000F000000FF000000EC0100004A0000000C0200006A0000002C
:402A80001F0000000F000000FF000000F10100004800000011020000680000001F0000000F000000FF000000F60100004600000016020000660000001F0000000F0000001E
:402AC000FF000000FB010000440000001B020000640000001F0000000F000000FF000000000200004200000020020000620000001F0000000F000000FF00000004020000EE
:402B00004000000024020000600000001F0000000F000000FF000000090200003E000000290200005E0000001F0000000F000000FF0000000E0200003C0000002E02000027
:402B40005C0000001F0000000F000000FF000000130200003B000000330200005B0000001F0000000F000000FF000000180200003900000038020000590000001F000000BA
:402B80000F000000FF0000001D020000380000003D020000580000001F0000000F000000FF000000220200003600000042020000560000001F0000000F000000FF000000CB
:402BC000270200003500000047020000550000001F0000000F000000FF0000002D020000340000004D020000540000001F0000000F000000FF000000320200003300000012
:402C000052020000530000001F0000000F000000FF000000370200003200000057020000520000001F0000000F000000FF0000003C020000310000005C020000510000005F
:402C40001F0000000F000000FF000000410200003000000061020000500000001F0000000F000000FF000000460200002F000000660200004F0000001F0000000F00000078
:402C8000FF0000004B0200002E0000006B0200004E0000001F0000000F000000FF000000510200002E000000710200004E0000001F0000000F000000FF00000056020000EB
:402CC0002D000000760200004D0000001F0000000F000000FF0000005B0200002D0000007B0200004D0000001F0000000F000000FF000000600200002C0000008002000024
:402D00004C0000001F0000000F000000FF000000660200002C000000860200004C0000001F0000000F000000FF0000006B0200002C0000008B0200004C0000001F000000F4
:402D40000F000000FF000000700200002C000000900200004C0000001F0000000F000000FF000000750200002C000000950200004C0000001F0000000F000000FF000000E9
:402D80007A0200002C0000009A0200004C0000001F0000000F000000FF000000800200002C000000A00200004C0000001F0000000F000000FF000000850200002D000000D9
:402DC000A50200004D0000001F0000000F000000FF0000008A0200002D000000AA0200004D0000001F0000000F000000FF0000008F0200002E000000AF0200004E00000015
:402E00001F0000000F000000FF000000950200002E000000B50200004E0000001F0000000F000000FF0000009A0200002F000000BA0200004F0000001F0000000F0000006A
:402E4000FF0000009F02000030000000BF020000500000001F0000000F000000FF000000A402000031000000C4020000510000001F0000000F000000FF000000A90200007E
:402E800032000000C9020000520000001F0000000F000000FF000000AE02000033000000CE020000530000001F0000000F000000FF000000B302000034000000D3020000A5
:402EC000540000001F0000000F000000FF000000B902000035000000D9020000550000001F0000000F000000FF000000BE02000036000000DE020000560000001F000000B9
:402F00000F000000FF000000C302000038000000E3020000580000001F0000000F000000FF000000C802000039000000E8020000590000001F0000000F000000FF000000A9
:402F4000CD0200003B000000ED0200005B0000001F0000000F000000FF000000D20200003C000000F20200005C0000001F0000000F000000FF000000D70200003E0000002C
:402F8000F70200005E0000001F0000000F000000FF000000DC02000040000000FC020000600000001F0000000F000000FF000000E00200004200000000030000620000005B
:402FC0001F0000000F000000FF000000E50200004400000005030000640000001F0000000F000000FF000000EA020000460000000A030000660000001F0000000F0000000D
:40300000FF000000EF020000480000000F030000680000001F0000000F000000FF000000F40200004A000000140300006A0000001F0000000F000000FF000000F8020000C9
:403040004D000000180300006D0000001F0000000F000000FF000000FD0200004F0000001D0300006F0000001F0000000F000000FF000000010300005200000021030000CA
:40308000720000001F0000000F000000FF000000060300005400000026030000740000001F0000000F000000FF0000000B030000570000002B030000770000001F00000021
:4030C0000F000000FF0000000F0300005A0000002F0300007A0000001F0000000F000000FF000000130300005C000000330300007C0000001F0000000F000000FF0000002C
:40310000180300005F000000380300007F0000001F0000000F000000FF0000001C030000620000003C030000820000001F0000000F000000FF000000200300006500000037
:4031400040030000850000001F0000000F000000FF000000250300006800000045030000880000001F0000000F000000FF000000290300006C000000490300008C0000005D
:403180001F0000000F000000FF0000002D0300006F0000004D0300008F0000001F0000000F000000FF000000310300007200000051030000920000001F0000000F0000007D
:4031C000FF000000350300007600000055030000960000001F0000000F000000FF000000390300007900000059030000990000001F0000000F000000FF0000003D030000F0
:403200007D0000005D0300009D0000001F0000000F000000FF000000400300008000000060030000A00000001F0000000F000000FF000000440300008400000064030000C2
:40324000A40000001F0000000F000000FF000000480300008800000068030000A80000001F0000000F000000FF0000004B0300008B0000006B030000AB0000001F00000059
:403280000F000000FF0000004F0300008F0000006F030000AF0000001F0000000F000000FF000000520300009300000072030000B30000001F0000000F000000FF00000094
:4032C000560300009700000076030000B70000001F0000000F000000FF000000590300009B00000079030000BB0000001F0000000F000000FF0000005C0300009F00000028
:403300007C030000BF0000001F0000000F000000FF00000060030000A300000080030000C30000001F0000000F000000FF00000063030000A800000083030000C80000004D
:403340001F0000000F000000FF00000066030000AC00000086030000CC0000001F0000000F000000FF00000069030000B000000089030000D00000001F0000000F000000E3
:40338000FF0000006C030000B50000008C030000D50000001F0000000F000000FF0000006E030000B90000008E030000D90000001F0000000F000000FF0000007103000024
:4033C000BD00000091030000DD0000001F0000000F000000FF00000074030000C200000094030000E20000001F0000000F000000FF00000076030000C700000096030000BA
:40340000E70000001F0000000F000000FF00000079030000CB00000099030000EB0000001F0000000F000000FF0000007B030000D00000009B030000F00000001F00000082
:403440000F000000FF0000007E030000D40000009E030000F40000001F0000000F000000FF00000080030000D9000000A0030000F90000001F0000000F000000FF00000002
:4034800082030000DE000000A2030000FE0000001F0000000F000000FF00000084030000E3000000A4030000030100001F0000000F000000FF00000086030000E800000026
:4034C000A6030000080100001F0000000F000000FF00000088030000EC000000A80300000C0100001F0000000F000000FF0000008A030000F1000000AA0300001101000054
:403500001F0000000F000000FF0000008C030000F6000000AC030000160100001F0000000F000000FF0000008D030000FB000000AD0300001B0100001F0000000F00000061
:40354000FF0000008F03000000010000AF030000200100001F0000000F000000FF0000009003000005010000B0030000250100001F0000000F000000FF0000009203000085
:403580000A010000B20300002A0100001F0000000F000000FF000000930300000F010000B30300002F0100001F0000000F000000FF0000009403000015010000B4030000D6
:4035C000350100001F0000000F000000FF000000950300001A010000B50300003A0100001F0000000F000000FF000000960300001F010000B60300003F0100001F000000C4
:403600000F000000FF0000009703000024010000B7030000440100001F0000000F000000FF0000009803000029010000B8030000490100001F0000000F000000FF0000009A
:40364000990300002E010000B90300004E0100001F0000000F000000FF0000009A03000033010000BA030000530100001F0000000F000000FF0000009A0300003901000061
:40368000BA030000590100001F0000000F000000FF0000009B0300003E010000BB0300005E0100001F0000000F000000FF0000009B03000043010000BB030000630100009B
:4036C0001F0000000F000000FF0000009C03000048010000BC030000680100001F0000000F000000FF0000009C0300004E010000BC0300006E0100001F0000000F00000016
:40370000FF0000009C03000053010000BC030000730100001F0000000F000000FF0000000000000000000000FF040000CF0200000000000000000000FF0000000000000064
:4037400000000000FF040000CF020000FF000000FF000000FF000000180000000000E02EC05D000000366E0100000000000000000000000000000000000000000000000090
:403780000000000000000000C00E0000000000000000000000000000000000000000000000000000000000000000000000000000000000000000000000000000000000003B
:4037C000000000000000000038A9FF1F00000000000000000000000000000000000000000000000000000000000000000000000000000000000000000000000000000000CA
:403800000000000000000000000000000000000000000000000000000000000000000000000000000000000000000000000000000000000000000000000000000000000088
:403840000000000000000000000000000000000000000000000000000000000000000000000000000000000000000000000000000000000000000000000000000000000048
:403880000000000000000000000000000000000000000000000000000000000000000000000000000000000000000000000000000000000000000000000000000000000008
:4038C00000000000000000000000000000000000000000000000000000000000000000000000000000000000000000000000000000000000000000000000000000000000C8
:020000040003F7
:0200000480007A
:40000000025200400202014009030140040501401141014005420140003601AC5B045F016C026F9474087749838087088F44E210E610AB10B301B40AEE705208530154020A
:4000400056805B04632064016710830187108E808F10D4E0D6E0D8C0E210E620A802B001B608B704EA20000000FFFF00FF000000010100000000000020000020000000000D
:4000800000000000000B0B0000000000007F7F00000000000020200000000000000101000000000002000002000000000000000000000000000000000000000000000000E6
:4000C0000000000000000000000000000000000000000000000000000000000000000000000000000000000000000000000000000000000000000000000000000000000000
:4001000000000000000000000000000000000000000000000000000000000000000000000000000000000000000000000000000000000000000000000000000000000000BF
:40014000000000000000000000000000000000000000000000000000000000000000000000000000000000000000000000000000000000000000000000000000000000007F
:40018000000000000000000000000000000000000000000000000000000000000000000000000000000000000000000000000000000000000000000000000000000000003F
:0200000490006A
:0400000000004005B7
:0200000490105A
:04000000BC90ACAF55
:0200000490303A
:0200000082DD9F
:0200000490402A
:4000000000000000000000000000000000000000000000000000000000000000000000000000000000000000000000000000000000000000000000000000000000000000C0
:400040000000000000000000000000000000000000000000000000000000000000000000000000000000000000000000000000000000000000000000000000000000000080
:400080000000000000000000000000000000000000000000000000000000000000000000000000000000000000000000000000000000000000000000000000000000000040
:4000C0000000000000000000000000000000000000000000000000000000000000000000000000000000000000000000000000000000000000000000000000000000000000
:0200000490501A
:0C00000000012E12306900012E1CB346D6
:00000001FF