:400000000080002011000000010500000105000008B5044B1A6803F53F5302331A6000F08FFA00BFFA46004010B5054C237833B9044B13B10448AFF300800123237010BDE2
:40004000A8A8FF1F00000000E8110000084B10B51BB108490848AFF300800848036803B910BD074B002BFBD0BDE81040184700BF00000000ACA8FF1FE8110000C880FF1F02
:400080000000000010B40468C4F30A0442681B4B03EAC22214438168C1F30A01C26803EAC2231943027C43691B029BB21A4383691B0403F47F031A43114B002018705C7071
:4000C000201298702014D870200E18710120587199710812D87108141872090E597202219972DA721112197311145973120E9A730322DA7304221A7510BC704700F83F008C
:40010000C4A8FF1F08B500F0E9FB08BD30B585B0054600243AE00021084600F0ADFB012000F050FB22461B49684600F039FC684600F03AFB285DFFF7E5FF012000F0E0FB1C
:40014000154B1868C0F101001860C0B200F0BAFB00F0B0FB114B1B689842F9D0012000F0CFFB0E4A1368C3F1010313600021084600F082FB012000F025FB224608496846F4
:4001800000F00EFC684600F00FFB0134042CC2DD05B030BDEC11000004A9FF1F24A9FF1FFC11000030B58DB062B600F057FB012000F008FB344C00252560344B1D606420FD
:4001C00000F018FA012000F08FFB642000F012FA284600F089FB642000F00CFA207800F071FB0021084600F047FB294800F0DCFA4FF47A7000F0FEF900230BE0C5EBC50221
:400200001A44244951F822100CAA02EB830242F82C1C0133062BF1DD01A8FFF733FF6B1C1D4883FB00015D18DA17C2EB25254FF4B47202FB1535012000F0C4FA174800F034
:40024000B3FA002419E0012000F0BCFA2246144908A800F0A5FB08A800F0A6FA4FF4FA7000F0C8F904EB84030E481844FFF74EFF4FF4FA7000F0BEF90134042CE3DD4FF423
:40028000FA7000F0B7F9ACE704A9FF1F24A9FF1F0C120000CC80FF1FB7600BB61C12000034120000C4A8FF1FFEE700BFF0B40022174611E050F82760F3B226F0FF0608E05E
:4002C00001EB420511F812406D78A5550132013BDBB2002BF4D10137052FEBD9F0BC7047064B1B78DBB203F00701054A11701B09013213704422034B1A707047CF010049EE
:400300006E5800407658004008B50A46002100F03EFB08BD38B502221E4B1A7008224FF040231A70032103F5007319701A4B1B78DBB21A490B701A4B1A8041F25122023BD6
:400340001A80002419250CE0164B1B7803F0010343EA440404F003044FF4F07000F0D0FA013D0DB1032CEFD115B90320FFF79CFF0D4B4FF480721A8007221A7000220B4920
:400380000A704820023108701A700222033B1A7038BD00BF0043004008010049A14600402242004025420040044000400640004008B500F0E1FA08BD38B572B6374A1378C7
:4003C00043F00403137000240CE0354D630019194A0011462A44084691882858FFF794FF0134E4B2052CF0D92E494FF09040FFF75DFF2D4A137843F0020313701032137873
:4004000043F002031370294C237843F040032370A2F58632513A137843F010031370082223492448FFF7C4FF082223492348FFF7BFFF0A2222492348FFF7BAFF0822224904
:400440002248FFF7B5FF082221492248FFF7B0FF082221492148FFF7ABFF082220492148FFF7A6FF0A2220492048FFF7A1FF204A137843F0080313701E4D61232B70FFF7C8
:4004800049FF81232B7001221B4B1A70FFF728FF0E2221461948FFF78BFF38BDE8460040481200001800004803500140A0430040680000480251004070000048C2510040EB
:4004C00078000048F051004084000048125100408C0000482251004094000048325100409C00004842510040A400004860510040224300400048004004000840B0430040E6
:4005000008B500F00DFA03680C2B00D1FEE7FEE708B5094B1A681044084BC31A802B02DC054B186005E000F0FBF90C2303604FF0FF32104608BD00BF2CA8FF1F30A9FF1FD4
:4005400008B5104E104D16E029686B68AC68002204E051F8040B43F8040B0432A242F8D1E868002203E0002143F8041B04328242F9D11035013E002EE6D100F0D7F9FFF757
:4005800011FEFEE701000000C812000008B5104A104B1A60104A136843F40073136000230AE0032B03D80D4A52F8231000E00C490C4A42F8231001332F2BF2D90A4B1A786C
:4005C0000A4B1A70074A0A4B1A60FFF7F5FE08BD0004FA050CED00E014ED00E000000000010500000080FF1FBC760040C080FF1F08ED00E010B5044605E0084B186800F091
:400600007FF9A4F50044B4F5004FF6D8034B586800FB04F000F074F910BD00BF30A8FF1F08B5034B1B7A00FB03F000F069F908BD30A8FF1F10B50B4C237803F09F03237049
:40064000237803F0F00323702378184340F0100020700120FFF7E4FF237803F0EF03237010BD00BF2051004038B505460E4C237843F020032370237803F0BF03237000203D
:40068000FFF7CEFF237803F0F003237023781D4345F0100525700120FFF7C2FF237803F0EF03237038BD00BF2051004070B5354B1A7802F08002D2B21A7033490A7802F090
:4006C000F00242F00F020A7001310A7802F0F0020A7001310A7802F0F0020A701A7802F0DF021A701A7842F040021A704FF4CA760020FFF795FF234D2B7843F010032B7087
:400700000120FFF78DFF214B1C78E4B22B7803F0EF032B700020FFF783FF04F00804E4B22B7843F010032B700120FFF779FF2B7803F0EF032B7014B90A20FFF771FF013E5D
:400740000CB1002ED4D10F4A137803F0BF031370137803F08003DBB213700232137803F0F00313700132137803F0F00343F00F0313700132137803F0F00343F00F031370BC
:4007800070BD00BF20510040225100402151004010B50446FFF78AFF2009FFF765FF04F00F00FFF761FF10BD38B505460078012404E0FFF7EDFF285D0134E4B20028F8D124
:4007C00038BD00BF10B50446FFF770FF2009FFF731FF04F00F00FFF72DFF10BD08B52820FFF708FF0320FFF725FF0520FFF702FF0320FFF71FFF0F20FFF7FCFE0320FFF7C6
:4008000019FF0120FFF7F6FE0220FFF713FF0520FFF7F0FE0620FFF7D5FF0E20FFF7D2FF2C20FFF7CFFF0820FFF7CCFF0120FFF7C9FF0C20FFF7C6FF0320FFF7C3FF0520BE
:40084000FFF7D8FE08BD00BF08B50C20FFF7BAFF0122014B1A7008BDF9A8FF1F08B5054B5B7823B9FFF7BAFF0122024B5A70FFF7EBFF08BDF9A8FF1F08B5032819D8DFE86A
:4008800000F002070D1381F08000FFF79BFF08BDA1F14000C0B2FFF795FF08BDA1F16C00C0B2FFF78FFF08BDA1F12C00C0B2FFF789FF08BD024B187800F00100704700BFD6
:4008C000C1510040044A137803F0DF03400100F0200018431070704730510040014B1870704700BF72640040044A137803F0FE0300F0010018431070704700BF4051004014
:400900000230800803D000BF01380046FCD17047EFF3108072B6704780F31088704700BF014B1868704700BFA0A8FF1F0E4B70B51E460E4C0025E41AA410A54204D056F8D2
:40094000253098470135F8E700F0ACFC084B094C1E46E41AA4100025A54204D056F8253098470135F8E770BDB0120000B0120000B0120000B812000010B5431E0A449142DD
:4009800004D011F8014B03F8014FF8E710BD03460244934202D003F8011BFAE7704700000EB400B54FF402719CB0ADF814106FF00041049107914FF6FF711DAB029006907E
:4009C000084853F8042BADF81610006802A9019300F064F8029B00221A701CB05DF804EB03B07047A0A8FF1F2DE9F0478E6882469E420C46914698463ED88A8912F4906F26
:400A00003AD02568096902236F1A656905EB450595FBF3F57B1C43449D4238BF1D4653050FD5294600F040FB064698B13A462169FFF7A2FFA38923F4906343F08003A3810C
:400A400013E02A4600F08EFB064670B92169504600F0DEFA0C23CAF80030A3894FF0FF3043F04003A381BDE8F08726613E44266046466561ED1BA560464528BF4646494651
:400A80003246206800F0A8FAA36800209B1BA36023681E442660BDE8F08700002DE9F04F9DB003938B8980461C060D4616460DD50B695BB9402100F0F7FA2860286118B9C0
:400AC0000C23C8F80030CDE040236B610023099320238DF82930DFF89CB130238DF82A3037463C4614F8013B1BB9B7EB060910D003E0252BF9D02746F3E74B46324629465E
:400B00004046FFF771FF013000F0A780099B4B4409933B78002B00F0A08000234FF0FF3204930793059206938DF853301A930126052221784E4800F041FA671C049B38B168
:400B40004B4A3C46801A06FA00F018430490EFE7D90644BF20228DF853201A0744BF2B228DF8532022782A2A03D0079A00210A200BE0039A111D12680391002A10DA524271
:400B800043F00200079204900BE027463B780134303B092B03D800FB02320121F5E701B107923B782E2B1ED17B782A2B0AD1039B02371A1D1B680392002BB8BF4FF0FF334A
:400BC000059310E0002319460593781C0A2407463A780130303A092A03D804FB01210123F5E703B1059103223978224800F0E6F940B14023CBEB000003FA00F0049B0137A1
:400C000018430490397806221B487E1C8DF8281000F0D4F988B1194B33B9039B073323F007030833039314E003AB00932A46144B04A94046AFF3008007E003AB00932A4635
:400C40000F4B04A9404600F093F8B0F1FF3F824603D0099B5344099342E7AB895B0601D4099801E04FF0FF301DB0BDE8F08F00BF6E12000074120000781200000000000058
:400C8000E90900002DE9F04791461F460A698B6806469342B8BF1346C9F8003091F843200C46DDF8208012B10133C9F800302368990642BFD9F800300233C9F800302568F7
:400CC00015F0060510D104F1190A07E00123524639463046C04701301AD00135E368D9F800209B1A9D42F1DB94F843302268003318BF012392060FD5E118302081F8430027
:400D00005A1C94F845102244023382F8431003E04FF0FF30BDE8F08704F1430239463046C0470130F4D02268D9F80050E36802F00602042A08BF5D1B2269A3680CBF25EA8F
:400D4000E57500259342C4BF9B1AED184FF000091A344D4509D00123224639463046C0470130D5D009F10109F3E70020BDE8F0872DE9F04317460A7E85B06E2A9846064644
:400D80000C460C9B01F1430E00F0AE8011D8632A22D009D8002A00F0BB80582A40F0CA8081F84520834955E0642A1ED0692A1CD0C0E0732A00F0B08009D86F2A2ED0702AF6
:400DC00040F0B8800A6842F020020A603EE0752A24D0782A3AD0ADE01A6801F14205111D1960136884F84230A8E021681A6811F0800F02D0111D196008E011F0400F02F1DF
:400E00000401196002D0B2F9003000E01368002B3CDA2D225B4284F8432037E021681A6811F0800F02D0111D196007E011F0400F02F10401196001D0138800E01368227EE6
:400E40005C496F2A14BF0A2208221BE078225A4984F845202268186812F0800F00F104051D6003D1550601D5038800E00368D00744BF42F0200222601BB9226822F02002C3
:400E800022601022002084F8430001E049490A226568002DA56008DB206820F0040020602BB9002D7DD175460CE0002B79D07546B3FBF2F002FB1033CB5C05F8013D034652
:400EC0000028F5D1082A0BD12368DA0708D5236962689A42DEBF302305F8013C05F1FF35C5EB0E0323612EE008681A6810F0800F496903D0101D1860136808E010F0400F77
:400F000002F104001860136801D0198000E0196000232361754616E01A68111D1960156800216268284600F049F808B1401B6060636804E004F1420584F842200123236137
:400F4000002384F84330CDF800803B4603AA21463046FFF797FE013002D14FF0FF3026E023692A4639463046C0470130F5D023689B0710D5002504F1190907E001234A4635
:400F800039463046C0470130E7D00135E368039A9B1A9D42F2DBE068039B9842B8BF184605E00B7804F1420584F842308AE705B0BDE8F0837F1200009012000010B5C9B2F6
:400FC00002449042034605D01C7801308C42F8D1184610BD002010BD884210B501EB020301D8421E0BE09842FBD28118D21AD34204D013F8014D01F8014DF8E710BD994267
:4010000004D011F8014B02F8014FF8E710BD000038B50546002944D051F8043C0C1F002BB8BFE41800F0D4F81E4A1368114613B96360146030E0A3420DD92268A0188342EF
:4010400001BF18685B681218226063600C6023E0A24203D813465A68002AF9D118681918A1420BD12168014458188242196013D110685268014419605A600DE002D90C2351
:401080002B6009E021686018824201BF106852680918216062605C602846BDE8384000F098B838BD00A9FF1F70B5CD1C25F0030508350C2D38BF0C25002D064601DBA94255
:4010C00002D90C23336046E000F082F8234B1C681A462146A1B10B685B1B0ED40B2B03D90B60CC18CD501EE08C420BBF63684B681360636018BF0C4615E00C464968E9E734
:40110000174C23681BB9304600F052F820602946304600F04DF8431C18D0C41C24F00304A0420DD12560304600F053F804F10B00231D20F00700C31A0ED05A42E25070BD5E
:40114000211A304600F034F80130EBD10C233360304600F03EF8002070BD00BF00A9FF1FFCA8FF1FF8B5074615460E4621B91146BDE8F840FFF798BF1AB9FFF749FF28463F
:40118000F8BD00F027F885420ED929463846FFF78BFF044650B131462A46FFF7EDFB31463846FFF735FF01E03046F8BD2046F8BD38B5064C0023054608462360FFF7A8F9E5
:4011C000431C02D1236803B12B6038BD28A9FF1F7047704751F8040C0028BEBF091851F8043CC018043870470000000053656E64696E672062797465202564004279746555
:401200002025642072637664000000005265637420434D44205465737400000041626F757420746F2073656E64206172726179730000000053656E64696E672061727261EC
:40124000792025640000000050510040100000000140001000140140000800400140000A004C014000020050014020004300232D302B2000686C4C00656667454647003080
:40128000313233343536373839414243444546003031323334353637383961626364656600000000F8B500BFF8BC08BC9E4670474D0000008D050000F8B500BFF8BC08BC18
:4012C0009E46704729000000D8120000C880FF1FE027000088000000000000009C03000078010000BC030000580100001B00000075000000720000009C0300007D010000FC
:40130000BC0300005D0100008C000000CD000000B20000009C03000082010000BC03000062010000DE0000000D000000380000009C03000088010000BC03000068010000CE
:4013400075000000F4000000C90000009B0300008D010000BB0300006D01000073000000550000000F0000009B03000092010000BB03000072010000BC000000810000006D
:40138000320000009A03000097010000BA030000770100006C0000002B000000BF0000009A0300009D010000BA0300007D0100005D000000F00000000400000099030000D8
:4013C000A2010000B903000082010000D30000009F0000008900000098030000A7010000B803000087010000A5000000B90000001800000097030000AC010000B703000013
:401400008C010000DF000000030000004B00000096030000B1010000B6030000910100002D000000EC0000001100000095030000B6010000B5030000960100009400000000
:40144000A2000000A600000094030000BB010000B40300009B010000DC0000000E000000D000000093030000C1010000B3030000A101000086000000B100000036000000A7
:4014800092030000C6010000B2030000A60100008A000000B3000000F300000090030000CB010000B0030000AB01000071000000150000000E0000008F030000D00100008F
:4014C000AF030000B0010000A0000000CB000000B00000008D030000D5010000AD030000B501000058000000F1000000840000008C030000DA010000AC030000BA01000001
:40150000F300000012000000340000008A030000DF010000AA030000BF010000C5000000E9000000C700000088030000E4010000A8030000C40100004B00000026000000D2
:40154000D800000086030000E8010000A6030000C8010000C8000000450000003A00000084030000ED010000A4030000CD01000051000000D3000000D10000008203000004
:40158000F2010000A2030000D201000091000000910000004800000080030000F7010000A0030000D7010000B2000000CB000000700000007E030000FC0100009E03000054
:4015C000DC0100007100000076000000470000007B030000000200009B030000E0010000AC000000E6000000E7000000790300000502000099030000E5010000BE000000A5
:4016000042000000AF000000760300000902000096030000E9010000210000001F00000030000000740300000E02000094030000EE01000025000000950000001200000069
:40164000710300001302000091030000F3010000D1000000B8000000EC0000006E030000170200008E030000F70100007D000000A6000000E20000006C0300001B02000040
:401680008C030000FB0100008900000047000000F8000000690300002002000089030000000200000900000053000000F80000006603000024020000860300000402000049
:4016C0005D0000004E0000001E00000063030000280200008303000008020000E90000002200000054000000600300002D020000800300000D020000E40000007F0000001B
:401700009C0000005C030000310200007C0300001102000094000000B200000007000000590300003502000079030000150200008600000008000000D200000056030000BD
:4017400039020000760300001902000056000000D70000003E000000520300003D020000720300001D02000094000000EF0000000C0000004F030000410200006F03000071
:40178000210200000D00000005000000AD0000004B030000450200006B03000025020000980000001D000000CB000000480300004802000068030000280200009D000000D6
:4017C0001100000011000000440300004C020000640300002C02000022000000C900000017000000400300005002000060030000300200003C0000003E0000001A000000DD
:401800003D030000530200005D03000033020000DA000000B2000000BB00000039030000570200005903000037020000A50000008300000053000000350300005A020000FE
:40184000550300003A020000A80000001D00000025000000310300005E020000510300003E02000005000000F5000000F70000002D030000610200004D03000041020000AB
:401880001F00000077000000A70000002903000064020000490300004402000049000000C00000008E000000250300006802000045030000480200006D000000440000005B
:4018C000C0000000200300006B020000400300004B020000E5000000B9000000670000001C0300006E0200003C0300004E020000EF00000041000000870000001803000013
:40190000710200003803000051020000F3000000440000003F00000013030000740200003303000054020000EC000000110000004C0000000F030000760200002F03000013
:40194000560200009600000033000000A20000000B030000790200002B03000059020000CB0000007F000000A5000000060300007C020000260300005C020000CA000000CB
:401980003B00000099000000010300007E020000210300005E0200001C00000083000000D5000000FD020000810200001D03000061020000EA0000007F0000004600000023
:4019C000F8020000830200001803000063020000A6000000E900000082000000F4020000860200001403000066020000F8000000320000001C000000EF0200008802000019
:401A00000F030000680200004B000000650000006B000000EA0200008A0200000A0300006A0200004F000000B000000017000000E50200008C020000050300006C0200001D
:401A4000660000004B0000004E000000E00200008E020000000300006E0200001A0000009700000048000000DC02000090020000FC02000070020000270000000000000082
:401A800048000000D702000092020000F7020000720200008C000000DE0000000A000000D202000094020000F202000074020000E600000021000000D4000000CD02000012
:401AC00095020000ED02000075020000CC000000EA00000023000000C802000097020000E80200007702000080000000670000002C000000C302000098020000E3020000F3
:401B000078020000920000009A00000036000000BE0200009A020000DE0200007A02000084000000FC0000007C000000B90200009B020000D90200007B020000B1000000B4
:401B40006800000008000000B30200009C020000D30200007C0200004A000000CC00000058000000AE0200009D020000CE0200007D02000015000000820000005D0000004F
:401B8000A90200009E020000C90200007E020000BC00000085000000CD000000A40200009F020000C40200007F020000D0000000300000001F0000009F020000A002000091
:401BC000BF02000080020000D1000000A2000000040000009A020000A1020000BA02000081020000E4000000830000008A00000095020000A2020000B50200008202000046
:401C00009A000000C1000000DA0000008F020000A2020000AF020000820200006100000015000000BB0000008A020000A3020000AA0200008302000054000000D600000048
:401C40005E00000085020000A3020000A502000083020000D30000002D0000002100000080020000A4020000A002000084020000E00000000B000000AF0000007A02000027
:401C8000A40200009A02000084020000BB0000006F0000006000000075020000A40200009502000084020000F9000000650000007000000070020000A40200009002000020
:401CC000840200002700000053000000500000006B020000A40200008B02000084020000E40000003E0000004F00000066020000A402000086020000840200006800000079
:401D0000B40000002400000060020000A40200008002000084020000DE00000015000000750000005B020000A30200007B0200008302000007000000C0000000B2000000D6
:401D400056020000A3020000760200008302000036000000AD0000008E00000051020000A20200007102000082020000D80000008E000000E50000004B020000A2020000CE
:401D80006B020000820200006A0000005B0000007C00000046020000A1020000660200008102000041000000EC0000007700000041020000A00200006102000080020000AD
:401DC000400000006D000000B30000003C0200009F0200005C0200007F020000660000002E000000DA000000370200009E020000570200007E020000940000005F000000B2
:401E000038000000320200009D020000520200007D02000037000000850000006E0000002D0200009C0200004D0200007C020000BD00000011000000D80000002702000031
:401E40009B020000470200007B020000AD00000022000000DA000000220200009A020000420200007A020000320000009A0000008A0000001D020000980200003D02000088
:401E8000780200002900000001000000C400000018020000970200003802000077020000C30000006B0000000E00000013020000950200003302000075020000950000002B
:401EC0002C000000B90000000E020000940200002E020000740200008800000040000000E900000009020000920200002902000072020000C1000000E2000000110000000E
:401F0000040200009002000024020000700200002E000000BB000000B1000000000200008E020000200200006E020000C60000007F0000006C000000FB0100008C02000078
:401F40001B0200006C0200009B000000DA000000AB000000F60100008A020000160200006A020000850000004C000000B3000000F101000088020000110200006802000032
:401F80006100000090000000E2000000EC010000860200000C02000066020000D6000000E5000000EF000000E8010000830200000802000063020000CF000000000000000D
:401FC00000000000E3010000810200000302000061020000160000004200000005000000DF0100007E020000FF0100005E0200006C000000560000008A000000DA010000CE
:402000007C020000FA0100005C020000EC0000004C00000056000000D501000079020000F501000059020000DB0000005600000023000000D101000076020000F101000009
:402040005602000081000000DA00000061000000CD01000074020000ED01000054020000B1000000A000000072000000C801000071020000E8010000510200007800000011
:40208000F200000015000000C40100006E020000E40100004E020000470000007100000095000000C00100006B020000E00100004B020000DF000000770000006F00000041
:4020C000BB01000068020000DB01000048020000BE00000077000000DB000000B701000064020000D701000044020000760000007F0000007C000000B301000061020000C0
:40210000D3010000410200003A0000001500000011000000AF0100005E020000CF0100003E020000E20000003B000000DB000000AB0100005A020000CB0100003A02000000
:40214000B5000000DE000000EF000000A701000057020000C7010000370200002300000064000000FA000000A301000053020000C301000033020000A4000000E4000000E0
:402180007A000000A001000050020000C001000030020000030000009E0000003A0000009C0100004C020000BC0100002C02000086000000B80000009A000000980100009D
:4021C00048020000B801000028020000960000006E0000003E0000009501000045020000B5010000250200006D000000020000009B0000009101000041020000B101000025
:4022000021020000F400000018000000090000008E0100003D020000AE0100001D020000E10000003E000000020000008A01000039020000AA01000019020000CF0000004E
:4022400023000000E00000008701000035020000A7010000150200001800000059000000970000008401000031020000A40100001102000095000000AA000000A500000081
:40228000800100002D020000A00100000D0200006E00000023000000BF0000007D010000280200009D010000080200003D000000A5000000DA0000007A01000024020000C1
:4022C0009A0100000402000015000000F70000000800000077010000200200009701000000020000D5000000D50000000C000000740100001B02000094010000FB0100001C
:402300008B000000F000000051000000720100001702000092010000F7010000CD00000099000000C90000006F010000130200008F010000F3010000CB0000000C000000AB
:40234000480000006C0100000E0200008C010000EE010000A60000007C000000F80000006A010000090200008A010000E9010000BE000000900000004C0000006701000015
:402380000502000087010000E501000041000000E200000071000000650100000002000085010000E0010000D000000019000000DB00000062010000FC010000820100009E
:4023C000DC01000007000000E5000000E500000060010000F701000080010000D7010000850000001E0000002D0000005E010000F20100007E010000D2010000B400000055
:40240000D3000000080000005C010000ED0100007C010000CD010000C1000000F4000000570000005A010000E80100007A010000C8010000A2000000570000003700000067
:4024400058010000E401000078010000C4010000C8000000B80000004700000056010000DF01000076010000BF010000940000006B0000001700000054010000DA01000065
:4024800074010000BA010000060000007D0000004600000053010000D501000073010000B501000056000000490000002B00000051010000D001000071010000B0010000BF
:4024C00065000000B10000003300000050010000CB01000070010000AB010000A9000000700000006E0000004E010000C60100006E010000A60100002C0000003100000049
:402500009D0000004D010000C10100006D010000A1010000440000008E000000F00000004C010000BB0100006C0100009B010000B6000000AD000000F40000004B01000067
:40254000B60100006B01000096010000C50000009A000000F10000004A010000B10100006A010000910100000F00000044000000FB00000049010000AC01000069010000A8
:402580008C010000C400000079000000AD00000048010000A701000068010000870100006A000000600000003600000047010000A20100006701000082010000610000008B
:4025C0000700000078000000460100009D010000660100007D01000055000000F80000008D00000046010000970100006601000077010000D7000000680000007500000046
:4026000045010000920100006501000072010000D2000000FC00000085000000450100008D010000650100006D010000EB000000BC000000900000004401000088010000E8
:402640006401000068010000F7000000D2000000F400000044010000820100006401000062010000A40000006000000079000000440100007D010000640100005D0100003C
:40268000E8000000030000002700000044010000780100006401000058010000780000008A0000000F00000044010000730100006401000053010000A7000000E200000080
:4026C0001B000000440100006E010000640100004E0100006F00000047000000FB000000440100006801000064010000480100009B00000040000000210000004501000008
:402700006301000065010000430100008A000000D3000000D5000000450100005E010000650100003E010000D4000000330000008A00000046010000590100006601000076
:4027400039010000DF0000001E000000DA00000046010000530100006601000033010000E50000003700000013000000470100004E010000670100002E010000780000003D
:40278000D4000000770000004801000049010000680100002901000069000000800000001F0000004901000044010000690100002401000021000000DD00000099000000EB
:4027C0004A0100003F0100006A0100001F01000043000000DC0000000E0000004B0100003A0100006B0100001A01000074000000B8000000560000004C0100003501000083
:402800006C010000150100006600000086000000E40000004D0100002F0100006D0100000F010000C600000011000000470000004E0100002A0100006E0100000A01000037
:4028400060000000DC0000006B000000500100002501000070010000050100003D000000980000007A00000051010000200100007101000000010000E5000000EE000000BB
:40288000D0000000530100001B01000073010000FB000000B4000000BD000000E5000000540100001601000074010000F6000000100000005500000001000000560100007F
:4028C0001101000076010000F1000000D3000000810000005D000000580100000C01000078010000EC0000003900000088000000490000005A010000080100007A010000F9
:40290000E80000001100000015000000110000005C010000030100007C010000E3000000680000001F000000700000005E010000FE0000007E010000DE000000E500000021
:402940005A0000001E00000060010000F900000080010000D900000091000000DF0000005800000062010000F400000082010000D40000000A000000240000001300000074
:4029800065010000F000000085010000D0000000BC00000074000000AA00000067010000EB00000087010000CB000000B200000091000000A00000006A010000E7000000B6
:4029C0008A010000C7000000DF000000A8000000DF0000006C010000E20000008C010000C20000007700000024000000110000006F010000DD0000008F010000BD0000003B
:402A0000B60000004E000000AB00000072010000D900000092010000B9000000A600000087000000B600000074010000D500000094010000B5000000800000007C000000DC
:402A40007E00000077010000D000000097010000B0000000EE000000630000001D0000007A010000CC0000009A010000AC0000003D000000AE000000D60000007D0100000D
:402A8000C80000009D010000A8000000F700000036000000C100000080010000C3000000A0010000A300000094000000660000008200000084010000BF000000A40100002D
:402AC0009F0000007E000000A6000000BD00000087010000BB000000A70100009B0000004C00000016000000D20000008A010000B7000000AA0100009700000063000000B5
:402B0000C50000002D0000008E010000B3000000AE010000930000001B000000E6000000DF00000091010000AF000000B10100008F000000FE000000DC00000009000000DA
:402B400095010000AB000000B50100008B0000008A000000FE0000008200000098010000A8000000B801000088000000DE00000011000000FB0000009C010000A40000001C
:402B8000BC01000084000000EB0000008F0000006E000000A0010000A0000000C00100008000000056000000B700000003000000A30100009D000000C30100007D000000D8
:402BC0005F000000EB0000008B000000A701000099000000C701000079000000780000007E0000004E000000AB01000096000000CB01000076000000F2000000FA000000CA
:402C000082000000AF01000092000000CF01000072000000FD000000740000006C000000B30100008F000000D30100006F0000003600000031000000D4000000B701000038
:402C40008C000000D70100006C000000B900000087000000D3000000BB01000088000000DB01000068000000820000008C00000036000000C001000085000000E00100007E
:402C80006500000095000000240000000D000000C401000082000000E401000062000000AE0000009B00000038000000C80100007F000000E80100005F00000067000000E3
:402CC000A00000008D000000CD0100007C000000ED0100005C000000200000002B00000000000000D10100007A000000F10100005A0000006A0000007C0000002800000022
:402D0000D501000077000000F501000057000000AA000000040000001E000000DA01000074000000FA01000054000000F2000000F800000007000000DF010000720000004C
:402D4000FF010000520000007D000000DB0000003D000000E30100006F000000030200004F000000D4000000CF000000A0000000E80100006D000000080200004D000000D5
:402D80000000000060000000E6000000EC0100006A0000000C0200004A000000AD00000060000000A1000000F10100006800000011020000480000003E00000091000000EC
:402DC000FA000000F6010000660000001602000046000000D800000048000000AE000000FB010000640000001B020000440000005B000000FB000000150000000002000022
:402E00006200000020020000420000003F000000CE000000150000000402000060000000240200004000000087000000CC000000BC000000090200005E000000290200003B
:402E40003E000000240000006F000000590000000E0200005C0000002E0200003C0000007A0000009500000025000000130200005B000000330200003B000000E600000056
:402E8000A3000000290000001802000059000000380200003900000090000000ED000000C70000001D020000580000003D02000038000000AE0000007600000042000000C8
:402EC00022020000560000004202000036000000910000003F0000005100000027020000550000004702000035000000E8000000E1000000CA0000002D02000054000000AB
:402F00004D02000034000000EC0000002D00000083000000320200005300000052020000330000009F000000E8000000A9000000370200005200000057020000320000001E
:402F400063000000BC000000D00000003C020000510000005C020000310000009900000015000000EB000000410200005000000061020000300000000D00000086000000F2
:402F80001E000000460200004F000000660200002F00000060000000CF0000003E0000004B0200004E0000006B0200002E000000E1000000B50000006000000051020000D9
:402FC0004E000000710200002E0000003F00000040000000C3000000560200004D000000760200002D0000000C000000AE0000009E0000005B0200004D0000007B020000D7
:403000002D000000BE000000F900000061000000600200004C000000800200002C00000042000000DF000000CD000000660200004C000000860200002C0000007500000024
:40304000170000008F0000006B0200004C0000008B0200002C0000002F000000870000005A000000700200004C000000900200002C00000050000000B90000008300000020
:40308000750200004C000000950200002C000000C900000034000000AC0000007A0200004C0000009A0200002C0000000D000000CC000000AD000000800200004C000000FD
:4030C000A00200002C000000F100000017000000E7000000850200004D000000A50200002D000000820000009C000000500000008A0200004D000000AA0200002D0000004B
:4031000013000000D8000000240000008F0200004E000000AF0200002E0000005E0000009E000000FE000000950200004E000000B50200002E00000083000000FC0000007F
:40314000390000009A0200004F000000BA0200002F00000065000000B1000000100000009F02000050000000BF02000030000000BE0000006B000000CE000000A40200009B
:4031800051000000C4020000310000006000000051000000FB000000A902000052000000C902000032000000B70000006900000019000000AE02000053000000CE02000015
:4031C00033000000BB000000A200000012000000B302000054000000D3020000340000001E000000FA0000007E000000B902000055000000D9020000350000000500000060
:403200000D00000023000000BE02000056000000DE02000036000000E3000000760000008F000000C302000058000000E3020000380000007E00000011000000E40000009D
:40324000C802000059000000E802000039000000490000004400000097000000CD0200005B000000ED0200003B000000790000005D000000A7000000D20200005C000000E3
:40328000F20200003C000000EF0000009E00000048000000D70200005E000000F70200003E000000340000006F00000006000000DC02000060000000FC0200004000000076
:4032C000DF0000009B00000033000000E0020000620000000003000042000000840000000D000000DB000000E5020000640000000503000044000000700000008B0000009A
:4033000090000000EA020000660000000A03000046000000AD0000005E00000013000000EF020000680000000F03000048000000740000000C000000BC000000F402000055
:403340006A000000140300004A00000009000000F3000000BD000000F80200006D000000180300004D000000EF000000820000003D000000FD0200006F0000001D030000BE
:403380004F00000042000000C1000000FD000000010300007200000021030000520000005A000000BF0000001C00000006030000740000002603000054000000980000000B
:4033C0006D000000BA0000000B030000770000002B030000570000004200000018000000720000000F0300007A0000002F0300005A000000A3000000210000007300000081
:40340000130300007C000000330300005C000000A6000000D20000004E000000180300007F000000380300005F00000066000000E1000000B20000001C03000082000000D4
:403440003C030000620000003D000000C10000004A0000002003000085000000400300006500000046000000010000005F000000250300008800000045030000680000000D
:403480006F0000004D0000004A000000290300008C000000490300006C0000003D000000EE000000DB0000002D0300008F0000004D0300006F000000650000007A00000033
:4034C00090000000310300009200000051030000720000007C00000044000000FC000000350300009600000055030000760000002E000000DB00000008000000390300000B
:4035000099000000590300007900000054000000BE000000A40000003D0300009D0000005D0300007D0000002B000000F20000008A00000040030000A000000060030000C0
:40354000800000004000000093000000E900000044030000A40000006403000084000000E40000007B0000007000000048030000A800000068030000880000004F00000035
:403580000E000000C00000004B030000AB0000006B0300008B000000210000005A000000640000004F030000AF0000006F0300008F000000E100000005000000D7000000AD
:4035C00052030000B30000007203000093000000490000003F0000007C00000056030000B70000007603000097000000B9000000330000003700000059030000BB0000005D
:40360000790300009B000000F8000000970000004D0000005C030000BF0000007C0300009F000000F6000000E40000003000000060030000C300000080030000A300000005
:4036400000000000B5000000DD00000063030000C800000083030000A80000001E000000090000009800000066030000CC00000086030000AC0000009A0000008300000016
:403680000100000069030000D000000089030000B0000000AF000000F1000000DE0000006C030000D50000008C030000B50000001C0000005A0000003D0000006E03000067
:4036C000D90000008E030000B90000008E0000009C0000004C00000071030000DD00000091030000BD000000CB000000CA000000C700000074030000E20000009403000043
:40370000C2000000590000000D000000B400000076030000E700000096030000C7000000FD000000290000001C00000079030000EB00000099030000CB000000E8000000F5
:403740007A000000D90000007B030000F00000009B030000D0000000CE0000002F0000003F0000007E030000F40000009E030000D40000000D0000009B000000C600000086
:4037800080030000F9000000A0030000D90000008200000007000000FC00000082030000FE000000A2030000DE0000007F000000540000002C0000008403000003010000FC
:4037C000A4030000E30000009F00000092000000BF0000008603000008010000A6030000E8000000270000005A00000024000000880300000C010000A8030000EC00000058
:40380000D800000056000000460000008A03000011010000AA030000F100000001000000CC0000007E0000008C03000016010000AC030000F600000089000000DE000000DA
:40384000B80000008D0300001B010000AD030000FB000000AA0000002D0000008C0000008F03000020010000AF03000000010000F400000097000000CE0000009003000084
:4038800025010000B003000005010000FB000000E100000036000000920300002A010000B20300000A010000080000007300000003000000930300002F010000B30300009D
:4038C0000F01000078000000F20000003F0000009403000035010000B403000015010000620000006E000000D3000000950300003A010000B50300001A010000D20000005A
:403900007300000061000000960300003F010000B60300001F010000EC000000BC000000BC0000009703000044010000B703000024010000F100000082000000C9000000A3
:403940009803000049010000B80300002901000073000000D800000063000000990300004E010000B90300002E010000BC000000F8000000850000009A03000053010000CF
:40398000BA030000330100006D00000034000000520000009A03000059010000BA030000390100001C0000005F000000540000009B0300005E010000BB0300003E0100006C
:4039C00057000000D0000000870000009B03000063010000BB0300004301000084000000C50000001E0000009C03000068010000BC030000480100009F00000058000000A7
:403A0000550000009C0300006E010000BC0300004E01000092000000DC000000320000009C03000073010000BC03000053010000AB000000E50000003200000030A9FF1F96
:403A40000000E02EC05D00001800000000366E0100000000000000000000000000000000000000000000000000000000000000006C120000000000000000000000000000E0
:403A800000000000000000000000000000000000000000000000000000000000000000000000000000000000000000000000000040A8FF1F00000000000000000000000000
:403AC00000000000000000000000000000000000000000000000000000000000000000000000000000000000000000000000000000000000000000000000000000000000C6
:403B00000000000000000000000000000000000000000000000000000000000000000000000000000000000000000000000000000000000000000000000000000000000085
:403B40000000000000000000000000000000000000000000000000000000000000000000000000000000000000000000000000000000000000000000000000000000000045
:403B80000000000000000000000000000000000000000000000000000000000000000000000000000000000000000000000000000000000000000000000000000000000005
:020000040003F7
:0200000480007A
:40000000025200400202014009030140040501401141014005420140003601AC5B045F016C026F9474087749838087088F44E210E610AB10B301B40AEE705208530154020A
:4000400056805B04632064016710830187108E808F10D4E0D6E0D8C0E210E620A802B001B608B704EA20000000FFFF00FF000000010100000000000020000020000000000D
:4000800000000000000B0B0000000000007F7F00000000000020200000000000000101000000000002000002000000000000000000000000000000000000000000000000E6
:4000C0000000000000000000000000000000000000000000000000000000000000000000000000000000000000000000000000000000000000000000000000000000000000
:4001000000000000000000000000000000000000000000000000000000000000000000000000000000000000000000000000000000000000000000000000000000000000BF
:40014000000000000000000000000000000000000000000000000000000000000000000000000000000000000000000000000000000000000000000000000000000000007F
:40018000000000000000000000000000000000000000000000000000000000000000000000000000000000000000000000000000000000000000000000000000000000003F
:0200000490006A
:0400000000004005B7
:0200000490105A
:04000000BC90ACAF55
:0200000490303A
:0200000017B334
:0200000490402A
:4000000000000000000000000000000000000000000000000000000000000000000000000000000000000000000000000000000000000000000000000000000000000000C0
:400040000000000000000000000000000000000000000000000000000000000000000000000000000000000000000000000000000000000000000000000000000000000080
:400080000000000000000000000000000000000000000000000000000000000000000000000000000000000000000000000000000000000000000000000000000000000040
:4000C0000000000000000000000000000000000000000000000000000000000000000000000000000000000000000000000000000000000000000000000000000000000000
:0200000490501A
:0C00000000012E12306900012E1E481C69
:00000001FF